:020000040800F2
:1000000058080020CD0100081B1A00086B170008D3
:10001000191A000801030008C71E000800000000AC
:100020000000000000000000000000008D1B000820
:1000300003030008000000001D1A00088F1B0008C1
:10004000E7010008E7010008E7010008AD1A000811
:10005000E7010008E7010008E7010008E7010008E0
:10006000E7010008050300080B030008E70100088A
:10007000E7010008E7010008E7010008E7010008C0
:10008000E7010008E7010008E7010008E7010008B0
:10009000E7010008E7010008E7010008E7010008A0
:1000A000E7010008E7010008E7010008E701000890
:1000B000E7010008E7010008E7010008E701000880
:1000C000E7010008E7010008E7010008E701000870
:1000D000E7010008E7010008E7010008E701000860
:1000E000E7010008211A0008E7010008E7010008FD
:1000F000E7010008E7010008E7010008E701000840
:10010000E7010008E7010008E7010008E70100082F
:10011000E7010008E7010008151C0008E7010008D6
:10012000E7010008E7010008E7010008E70100080F
:1001300000F002F800F03AF80AA090E8000C8244BF
:100140008344AAF10107DA4501D100F02FF8AFF29C
:10015000090EBAE80F0013F0010F18BFFB1A43F0A5
:1001600001031847501F0000701F0000103A24BF01
:1001700078C878C1FAD8520724BF30C830C144BF0C
:1001800004680C607047000000230024002500264E
:10019000103A28BF78C1FBD8520728BF30C148BFEA
:1001A0000B6070471FB51FBD10B510BD00F058F8AB
:1001B0001146FFF7F7FF01F097FE00F076F803B461
:1001C000FFF7F2FF03BC00F07DF80000094880470C
:1001D00009480047FEE7FEE7FEE7FEE7FEE7FEE729
:1001E000FEE7FEE7FEE7FEE704480549054A064B41
:1001F00070470000131C000831010008580200205D
:100200005808002058040020580400204FF0000235
:1002100000B5134694469646203922BFA0E80C50FC
:10022000A0E80C50B1F12001BFF4F7AF090728BFD7
:10023000A0E80C5048BF0CC05DF804EB890028BF53
:1002400040F8042B08BF704748BF20F8022B11F07C
:10025000804F18BF00F8012B7047704770477047F8
:10026000754600F02BF8AE4605006946534620F06F
:100270000700854618B020B5FFF7B6FFBDE820405F
:100280004FF000064FF000074FF000084FF0000B52
:1002900021F00701AC46ACE8C009ACE8C009ACE805
:1002A000C009ACE8C0098D46704710B50446AFF3ED
:1002B00000802046BDE81040FFF781BF004870472E
:1002C000F801002001491820ABBEFEE7260002001D
:1002D0007047000080B144F6206191FBF0F00749BF
:1002E0000A68D062C8600A6800EBD0704010906362
:1002F00009680020486270470120F0E7680100208B
:10030000FEE77047082000F039B8102000F036B83A
:1003100072B6FEE770B5044600F04AF90546601C67
:1003200002D004480078044400F042F9401BA04287
:10033000FAD370BDFC00002070B5082818D10D4C10
:100340000821204600F022F90B4D20B9002220217F
:10035000284600F028F90821204600F017F9012866
:1003600006D12846BDE870400122202100F01BB9CB
:1003700070BD000000180140000C0140044910B598
:100380000A68024202D00860FFF7D6FF10BD0000E5
:10039000140401402DE9F84FDFF8C8910024A9F1B9
:1003A000040B23460F2709F1040AABF1040ED1E038
:1003B0000125A54006EA0502AA4276D1DFF8A8C1C8
:1003C0004E68A6EB0C0866452BD00DDC032E34D00E
:1003D00005DC36B3012E19D0022E2FD11BE0112ED1
:1003E00016D0122E2AD119E0B8F5881F19D006DCD4
:1003F000B8F5803F15D0B8F5801F1FD111E0B8F5D2
:10040000001F0ED0B8F5041F18D10AE0CB6815E024
:10041000CB681B1D12E0CB6808330FE0CB680C33B0
:100420000CE08B682BB1012B4FF0080303D0456122
:1004300004E0042302E0056100E00023FF2A01D864
:10044000064601E000F104064FEA840501D9A5F152
:100450002005D6F8008007FA05FC28EA0C0803FA04
:1004600005F548EA0508C6F800804D68ED0070D52E
:100470003E4DAE6946F00106AE61AD6924F003065B
:1004800005F0010500953A4D06EB050CDCF8085027
:10049000A607360F07FA06F825EA0805DFF8D48024
:1004A000404503D14FF0000825E052E0DFF8C88056
:1004B000404502D14FF001081DE0DFF8C080404503
:1004C00002D14FF0020816E0DFF8B480404502D1B7
:1004D0004FF003080FE0DFF8AC80404502D14FF049
:1004E000040808E0DFF8A080404502D14FF005087D
:1004F00001E04FF0060808FA06F848EA0508CCF8CB
:1005000008804D68D9F80060ED024D4601D51643CC
:1005100000E096432E604D68DAF80060AD02554663
:1005200001D5164300E096432E604D68DBF800606D
:10053000AD035D4601D5164300E096432E604D683D
:10054000DEF80060ED03754601D5164300E09643E2
:100550002E60641C0A681646E2407FF429AFBDE8AD
:10056000F88F000008040140000011100010024044
:100570000000014000080140000C01400010014053
:100580000014014000180140001C01408068084030
:1005900000D001207047C26821EA02030A4043EA02
:1005A0000241016170470AB1016170470904FBE72C
:1005B0000148806870470000FC0000200248816804
:1005C0000278114481607047FC000020074810B594
:1005D000016841F010010160032000F075F80F2060
:1005E00000F006F800F024F8002010BD00200240C2
:1005F00070B50D4D04464FF47A712878B1FBF0F0D8
:100600000A490968B1FBF0F000F04BFD48B9102C25
:1006100007D200222146501E00F036F800206C6000
:1006200070BD012070BD0000FC000020080100200A
:100630000C4808B5816941F001018161816901F0CF
:1006400001010091C16941F08051C161C06900F0B0
:10065000805000900448416821F0E06141F0007151
:10066000416008BD0010024000000140002809DB85
:1006700000F01F02012191404009800000F1E020BC
:10068000C0F8001170470000F0B40E4B1B680C4618
:10069000C3F30223C3F10705042D00D90425191D56
:1006A000072901D2002300E0DB1E012606FA05F12E
:1006B000491E214099409E40761E16403143F0BCB1
:1006C00001F002BC0CED00E0064900F007020868EA
:1006D0004FF6FF03184040EA0220034A1043086027
:1006E000704700000CED00E00000FA050149012010
:1006F0000862704700000E4210B501460020284CE9
:1007000004292FD00BDC012930D0022929D100F097
:100710005BF96168C1F38131491C49001FE0082978
:1007200020D010291DD161682268D20119D51D4839
:10073000C1F38342C903805C0AD56168194AC1F3D9
:100740004041921E515C184AB2FBF1F1484301E06E
:10075000164948436168490203D440000321B0FBB5
:10076000F1F010BDBDE8104000F03EB9226AC2F3BE
:100770000121012903D1920701D5C80310BD022927
:1007800005D1626A920702D549F6404010BD03299F
:10079000FCD121688903F9D54FF2244010BD000037
:1007A000001002408A20000800127A0000093D0073
:1007B0002DE9F84305460078354CC00754D0E06970
:1007C0000026C00008D4E06940F08050E061E06994
:1007D000012600F0805000902E480168C90512D40F
:1007E0000168804641F480710160FFF7E1FE074631
:1007F00005E000BFFFF7DCFEC01B642823D8D8F853
:100800000000C005F6D5206A10F4407021D0A988F8
:1008100001F4407181421CD0206A1F49012220F45A
:1008200040700A6000220A602062C00711D0FFF702
:10083000BFFE074641F2883808E000BFFFF7B8FE68
:10084000C11B414502D90320BDE8F883206A800717
:10085000F4D5206A696820F44070084320621EB114
:10086000E06920F08050E0612878800705D5606855
:10087000A96820F44040084360602878C00605D588
:100880006068696920F48000084360600020DBE74D
:100890000010024000700040400442422DE9F04741
:1008A0000F46050061D0434E306800F00700B842A3
:1008B00009D2306820F0070038433060306800F01B
:1008C0000700B84251D128683B4C810712D5400738
:1008D00003D5606840F4E06060602878000703D5C5
:1008E000606840F4605060606068A96820F0F000C3
:1008F000084360602878C00728D06868012810D0B5
:100900002168022810D0890700292EDA616821F0B9
:10091000030101436160FFF74BFE804641F28839D5
:100920000DE021688903EFE78901EDE7FFF740FE5D
:10093000A0EB0801494502D90320BDE8F0876068B3
:10094000696800F00C00B0EB810FEFD1306800F067
:100950000700B8420BD9306820F0070038433060F8
:10096000306800F00700B84201D00120E5E72878A0
:10097000400705D56068E96820F4E06008436060DE
:100980002878000706D56068296920F4605040EA9D
:10099000C100606000F028F86168084AC1F30311E3
:1009A000515CC8400649086006480068FFF720FE11
:1009B0000020C2E700200240001002409A200008F8
:1009C000080100200001002004480549006849682A
:1009D000044AC1F3C221515CC8407047080100209D
:1009E00000100240AA2000080E4A51680E4801F08B
:1009F0000C03042B11D0082B0FD10C48C1F38343F7
:100A0000C903C05C0AD55168084AC1F34041921E2F
:100A1000515C054A5043B0FBF1F07047044948432C
:100A2000704700000010024000127A007820000891
:100A300000093D002DE9F84F040070D02078C04D2A
:100A4000C00749D06868C0F38100012807D06868F2
:100A5000C0F38100022809D16868C00306D5286860
:100A6000800339D560680028E7D035E06068B0F5CC
:100A7000803F0BD010B1B0F5A02F11D0286820F422
:100A800080302860286820F4802002E0286840F444
:100A900080302860606890B1FFF78AFD06460AE062
:100AA000286840F480202860F0E700BFFFF780FD51
:100AB000801B642873D828688003F7D50CE0FFF703
:100AC00077FD064605E000BFFFF772FD801B642836
:100AD000F0D828688003F7D420789A4E80074FF02A
:100AE00001094FF0000839D5686810F00C0F07D0E5
:100AF0006868C0F38100022809D16868C00306D481
:100B00002868800714D52069012808D110E02069E1
:100B1000B0B1C6F80090FFF74BFD074605E00AE1CB
:100B2000FFF746FDC01B0228C4D828688007F7D508
:100B30002868616920F0F80040EAC10028600DE0F3
:100B4000C6F80080FFF734FD074604E0FFF730FDEC
:100B5000C01B022823D828688007F7D42078000714
:100B60002CD57948A169D9B1C0F80090FFF720FDD4
:100B7000074604E0FFF71CFDC01B02280FD8686A77
:100B80008007F7D571484FF4FA510068B0FBF1F0D7
:100B9000009000BF0098411E0091FAD20EE080E064
:100BA000C0F80080FFF704FD074604E0FFF700FDF2
:100BB000C01B022875D8686A8007F7D420784007E0
:100BC00060D5E8690027C00008D4E86940F080508B
:100BD000E861E869012700F0805000905C480168F6
:100BE000C90513D40168834641F480710160FFF7A1
:100BF000DFFC824606E000BFFFF7DAFCA0EB0A004C
:100C000064284ED8DBF80000C005F5D5E06801285F
:100C10000AD008B1052813D0286A20F00100286204
:100C2000286A20F0040002E0286A40F001002862EF
:100C3000E06841F2883B98B1FFF7BAFC82460BE0CE
:100C4000286A40F004002862EEE700BFFFF7B0FC1E
:100C5000A0EB0A0159455AD8286A8007F6D50CE05E
:100C6000FFF7A6FC824605E0FFF7A2FCA0EB0A0115
:100C700059454CD8286A8007F6D41FB1E86920F09E
:100C80008050E861E06988B36968C1F38101022995
:100C900044D00228C6F8608004D0FFF789FC0446DF
:100CA00038E034E0FFF784FC074604E0FFF780FCFF
:100CB000C01B02282BD828688001F7D4206AB0F521
:100CC000803F05D16868A16820F40030084368605F
:100CD000D4E908010843696821F474110843686085
:100CE000C6F86090FFF764FC044606E025E000BF0C
:100CF000FFF75EFC001B022809D828688001F7D5A1
:100D00001BE000BFFFF754FC001B022802D90320A0
:100D1000BDE8F88F28688001F4D40EE00128F7D0F0
:100D20006868226A00F48031914204D1616A00F45B
:100D30007010884201D00120EAE70020E8E70000B7
:100D4000001002400000424280044242080100209C
:100D5000007000407047704710B504460068016895
:100D6000C90717D04168C90714D04068400720461A
:100D700007D5FFF7F0FF21686FF0040048600420FA
:100D800002E0FFF7E7FF012060742068416821F06E
:100D90000101416010BD80B1017C01290FD001210A
:100DA0000174022242740268136843F00103136065
:100DB00041740021017408467047012070470220E9
:100DC0007047704710B504460068016889070AD566
:100DD0004068800707D52046FFF7F3FF2068416889
:100DE00021F00201416003494FF400300860012006
:100DF000607410BD1404014070B5040003D0607C21
:100E0000002610B105E0012070BD2674204600F0D8
:100E10003DF802206074204600F026F9042550BBFE
:100E2000204600F00CFE30BB2068416821F007012D
:100E30004160A06820B11448016821F001010160FF
:100E40001148001F0168A26821F46071114301601C
:100E50006068411C04D10120FFF74EFC58B1401ED0
:100E60002268C0F303419160216880B2C8602046C7
:100E700000F000FE08B16574C5E7E67301206073F9
:100E8000A0736074002070BD306C004008B500682D
:100E90001549884226D1FFF729FC1448C16941F061
:100EA0000061C161C069124900F00060009001203A
:100EB0000860002211460320FFF7E6FB0320FFF73E
:100EC000D5FB002211462920FFF7DEFB2920FFF782
:100ED000CDFB0848FFF75FFF002803D0BDE80840BE
:100EE000FFF716BA08BD00000028004000100240BD
:100EF0003C0442420C0100202DE9F0410D46040063
:100F00003BD0C5B3207C01283AD04FF0010884F8CB
:100F1000108002206074E87872B300F087FDE073FF
:100F2000687800F083FD6073A87800F07FFDA073FF
:100F3000C2B2617BE07B00F0D6FD207328702046B2
:100F400000F0C1FD4FF46161B0FBF1F100251829FB
:100F50002DD91822B1FBF2F1A1EB011101EB4101F6
:100F6000C1EB011100EBC1163146204600F0FAFD3D
:100F70000427C8B90BE000E004E00120BDE8F081DF
:100F80000220FBE7E07368786073A878CFE720461B
:100F900000F092FD411C0AD0B04208D2064901443B
:100FA000204600F0CBFD10B167742574E5E784F8A6
:100FB000118025740020E1E7805101002DE9F04106
:100FC0000D46040024D01DB3207C012823D04FF00F
:100FD000010884F81080022060742878EAB100F0DB
:100FE00025FD4FF4616100FB01F6687800F01EFDFD
:100FF000C0EB001006EB8006A87800F017FD35184E
:101000002946204600F0AEFD0026042710BB0FE065
:101010000120BDE8F0810220FBE74FF46161484305
:101020006978C1EB011100EB8100A9784518E7E769
:101030002068416821F005014160204600F03CFD38
:10104000411C0AD0A84208D206490144204600F0BB
:1010500075FD10B167742674DAE784F81180267480
:101060000020D6E78051010070B504000AD0206846
:10107000416821F008014160FFF79AFA05464FF4F4
:101080007A7608E0012070BDFFF792FA401BB0426B
:1010900001D9032070BD206840680007F4D5002006
:1010A00070BD10B5401EB0F1807F01D3012010BD8E
:1010B0004FF0E02460610F21601700F005FF002071
:1010C000A06107202061002010BD7047704700001C
:1010D00070B590F83C20012A2CD0012480F83C40C7
:1010E000022280F83D2003685A689D6822F070064D
:1010F0000A6832435A60104B02689A420ED00F4B76
:101100009A420BD0B2F1804F08D00D4B9A4205D0D5
:101110000C4B9A4202D00C4B9A4204D1496825F0FC
:1011200080031943916080F83D40002180F83C1015
:10113000084670BD022070BD002C01400034014003
:101140000004004000080040000C004010B50400FE
:1011500003D094F83D0010B107E0012010BD00203D
:1011600084F83C00204600F01FF8022084F83D007F
:10117000211D206800F054FD012084F8460084F809
:101180003E0084F83F0084F8400084F8410084F871
:10119000420084F8430084F8440084F8450084F851
:1011A0003D00002010BD000008B5174A016817482F
:1011B000914207D1C16941F00201C161C06900F0EB
:1011C000020009E0124A914208D1C16941F00401CC
:1011D000C161C06900F00400009008BD0D4A914251
:1011E000FBD1C16941F01001C161C069002200F06A
:1011F0001000009004213620FFF746FABDE80840B1
:101200003620FFF733BA000000040040001002400F
:10121000000800400010004090F83D10012901D066
:1012200001207047022180F83D100168CA6842F031
:101230000102CA6000680E4988420ED00D498842FA
:101240000BD0B0F1804F08D00B49884205D00B4934
:10125000884202D00A49884204D1816801F007011E
:10126000062903D0016841F00101016000207047A8
:10127000002C014000340140000400400008004000
:10128000000C004070B5044690F83C000025012891
:1012900017D0012684F83C60022084F83D002068C5
:1012A000826822F0770222F47F4282600868502828
:1012B00038D00DDC20284FD005DC90B3102811D198
:1012C0004AE0022070BD302846D040280AD13BE0D9
:1012D00060282FD070280DD0B0F5805F03D0B0F516
:1012E000005F12D0012584F83D60002084F83C00A6
:1012F000284670BDCB68D1E90121206800F0EBFCE5
:101300002068816841F0770109E0CB68D1E90121CB
:10131000206800F0E0FC2068816841F48041816031
:10132000E1E719E0CA684968206800F0A9FD50218A
:10133000206806E0CA684968206800F0B2FD6021B4
:10134000206800F0D2FCCEE7CA684968206800F047
:1013500097FD40212068F4E7226801461046F0E737
:1013600070472DE9F04104460068C66805694FF0F2
:101370000007A90713D5B10711D5F91E0161012096
:101380002077206880698007204602D0FFF7E8FFB9
:1013900004E000F0C5F8204600F057F92777680709
:1013A00016D5700714D521686FF00400086102207B
:1013B00020772068806910F4407F204602D0FFF734
:1013C000CFFF04E000F0ACF8204600F03EF92777AC
:1013D000280715D5300713D521686FF0080008617C
:1013E000042020772068C0698007204602D0FFF7DC
:1013F000B7FF04E000F094F8204600F026F92777C4
:10140000E80616D5F00614D521686FF010000861C3
:10141000082020772068C06910F4407F204602D061
:10142000FFF79EFF04E000F07BF8204600F00DF986
:101430002777E80708D0F00706D021686FF0010091
:101440000861204600F05CF9280608D5300606D56C
:1014500021686FF0800008612046FFF736FE6806BD
:1014600008D5700606D521686FF040000861204657
:1014700000F07AF9A8060AD5B00608D521686FF001
:10148000200008612046BDE8F041FFF71FBEBDE81F
:10149000F081000010B586B0002100910191029109
:1014A00003911A4C03681A4902221A48A34219D11F
:1014B0008B6943F008038B618969039201F008018D
:1014C00004912021CDE900126946FEF763FF12481E
:1014D000416821F4406141F0E06141F40061416004
:1014E00006B010BD0D4CA342FAD18B6943F008033E
:1014F0008B618969039201F0080104918021CDE993
:1015000000126946FEF746FFEAE7000000040040CB
:1015100000100240000C01400000014000080040A3
:10152000704770B5044690F83C0000260D4601282F
:101530000FD0012084F83C006AB1042A1DD0082A8B
:101540002FD00C2A3FD00126002084F83C003046E2
:1015500070BD022070BD206800F0D0FB206881695A
:1015600041F0080181612068816921F004018161F5
:10157000206881692A69114311E0206800F0EEFBC0
:101580002068816941F4006181612068816921F4EA
:1015900080618161206881692A6941EA0221816153
:1015A000D2E7206800F010FC2068C16941F0080112
:1015B000C1612068C16921F00401C1612068C1696D
:1015C0002A69114311E0206800F032FC2068C169EB
:1015D00041F40061C1612068C16921F48061C16189
:1015E0002068C1692A6941EA0221C161ACE710B5EE
:1015F000040003D094F83D0010B107E0012010BDB5
:10160000002084F83C00204600F01EF8022084F8F8
:101610003D00211D206800F003FB012084F84600F6
:1016200084F83E0084F83F0084F8400084F84100CC
:1016300084F8420084F8430084F8440084F84500AC
:1016400084F83D00002010BD7047704710B5044677
:10165000022249B104290ED0082913D094F8410080
:10166000012816D0012010BD94F83E000128F9D1C0
:1016700084F83E200FE094F83F000128F2D184F86E
:101680003F2008E094F840000128EBD184F8402086
:1016900001E084F841200122206800F00FFB13498B
:1016A0002068134A884201D0904203D1436C43F42E
:1016B00000434364206888420DD090420BD0B0F1C3
:1016C000804F08D00B49884205D00B49884202D090
:1016D0000A49884204D1816801F00701062903D034
:1016E000016841F001010160002010BD002C0140A3
:1016F000003401400004004000080040000C00409D
:1017000010B5154942F21074884223D120211348A4
:10171000FEF741FF12480022124B416801290AD10D
:10172000016801F584710160A14201DBC0E900425A
:101730001C680168A163416800290BD10168A1F50B
:1017400084710160002902DC0121C0E900211968CF
:101750000068886310BD0000B0010020001801403F
:1017600000000020200100207047FEE770B586B021
:10177000002428480094019402940394816941F064
:1017800040018161816901F040010491816941F06A
:1017900010018161816901F010010491816941F0BA
:1017A00004018161816901F004010491816941F0C2
:1017B000080181618069184E00F008000490002241
:1017C00020213046FEF7EFFE182000901348012537
:1017D000CDE9010569463046FEF7DCFD2020CDE964
:1017E00000050220CDE9024069463046FEF7D2FDF1
:1017F000002208210920FEF747FF0920FEF736FFE7
:10180000002208210A20FEF73FFF0A20FEF72EFFE4
:1018100006B070BD00100240001801400000211009
:101820001CB500241A480194184900940160611EF7
:1018300041604FF480718160FFF7DEFA08B1FEF776
:1018400067FD0B208DF804008DF805408DF80640EB
:10185000002201A90E48FFF7B1FB08B1FEF758FDC1
:1018600001208DF8000003208DF8010017208DF86D
:1018700002001A208DF80300002269460448FFF791
:101880003BFB002801D0FEF743FD1CBD00280040B3
:101890000C01002010B58EB0002407940894099420
:1018A0000A940B941C2168460C94FEF7AFFC204868
:1018B0001E4901608F21C0E9011442F20F71C0E995
:1018C000031480218161FFF741FC08B1FEF720FD80
:1018D0004FF48050079007A91548FFF7D3FC08B1D3
:1018E000FEF716FD1248FFF782FE08B1FEF710FD65
:1018F0000B940BA90E480C94FFF7EAFB08B1FEF716
:1019000007FD6020009041F2883001900220029093
:101910000422694604940648FFF703FE08B1FEF767
:10192000F7FC0348FFF7B6FD0EB010BD0004004001
:101930002001002010B58EB000240794089409946B
:101940000A940B941C2168460C94FEF75FFC1F4818
:101950001D49016040F60F61C0E9011444F61F61A2
:10196000C0E9031480218161FFF7F0FB08B1FEF7A5
:10197000CFFC4FF48050079007A91448FFF782FC72
:1019800008B1FEF7C5FC1148FFF731FE08B1FEF7BC
:10199000BFFC0B940BA90D480C94FFF799FB08B101
:1019A000FEF7B6FC6020CDE90004029404226946EB
:1019B00006480494FFF7B5FD08B1FEF7A9FC0348FB
:1019C000FFF768FD0EB010BD000800406801002060
:1019D0001CB500240F4800940D490194016040F6A5
:1019E0000F61C0E9011442F20F71C1608021816171
:1019F000FFF7ACFB08B1FEF78BFC00946946054885
:101A00000194FFF765FB002801D0FEF781FC1CBDA7
:101A100000100040B0010020FEE7FEE77047000024
:101A20000148FFF7CFB900000C010020010901EBCC
:101A3000810100F00F0000EB4100C0B2704770B5AB
:101A40000446FEF7B5FD05464FF47A7606E0FEF74C
:101A5000AFFD401BB04201D9032070BD2068406833
:101A60008006F4D52068416841F0100141600020F3
:101A700070BD000070B504460068416821F0100197
:101A80004160FEF795FD05464FF47A7607E000BF0A
:101A9000FEF78EFD401BB04201D9032070BD2068C7
:101AA00040688006F4D5002070BD00000148FFF7B3
:101AB00053B900000C0100200168086A496A89B224
:101AC00041EA00407047006881698AB2C1698BB2FF
:101AD000816989B28A4203D0C06961F31F407047AF
:101AE00043EA02407047F0B56424C1EBC103092703
:101AF000A500072603EB01130329B3FBF7F100F55B
:101B0000FA60114401440AD2401EB0FBF4F201EB2A
:101B10009001B0FBF5F0891A0844001D08E0B0FB05
:101B2000F4F201EB9001B0FBF5F0891A0844801C37
:101B3000B0FBF6F106FB1100C0B2F0BD70B50D466A
:101B400006460024FFF77BFF48B93168280C08627D
:101B50003168A8B248623046FFF78CFF00B101241B
:101B6000204670BD70B50D4606460024FFF767FF9E
:101B700048B93168280C88613168A8B2C86130461C
:101B8000FFF778FF00B10124204670BD7047FEF7D3
:101B900015BD70B596B028216846FEF737FB1421B5
:101BA0000AA8FEF733FB18210FA8FEF72FFB092028
:101BB000012400904FF48030002504940694CDE970
:101BC00001050226CDE907604FF4E0100990684650
:101BD000FEF730FF08B172B6FEE70F20CDE90A0626
:101BE0004FF48060CDE90C5002210AA80E95FEF753
:101BF00055FE08B172B6FEE74FF40070CDE90F4014
:101C00000FA8FEF7D5FD002801D072B6FEE716B08A
:101C100070BD70470148FFF7A4BB0000B001002071
:101C2000F0B50268204C214D214E224F224B4FF03F
:101C3000804CA04209D0984207D0604505D0A84208
:101C400003D0B04201D0B84204D122F0700E4A68ED
:101C500042EA0E02A04209D0984207D0604505D062
:101C6000A84203D0B04201D0B84203D122F440755B
:101C7000CA682A434D6922F080022A4302608A68BA
:101C8000C2620A688262A04201D0984201D1096909
:101C90000163012141610169C90703D0016921F094
:101CA00001010161F0BD0000002C01400004004072
:101CB00000080040000C00400034014010B501F065
:101CC0001F030121046A99408C430462016A9A400F
:101CD0001143016210BD10B5846842EA032224F466
:101CE0007F440A432243826010BD826822F0700262
:101CF0000A4342F00701816070470000F0B5036AB3
:101D0000026A22F00102026242688469124E24F0E3
:101D100073050C682C4323F002058B682B430D4D93
:101D2000A84201D0B04205D123F00807CB683B435D
:101D300023F00403A84201D0B04205D14D6922F43A
:101D4000407215438A692A4342608461496841634D
:101D50000362F0BD002C014000340140F0B5026A7E
:101D6000036A23F010030362436884690D6824F456
:101D7000E64444EA05248D6822F0200242EA051276
:101D80000F4D104EA84201D0B04206D1CF6822F0CC
:101D9000800242EA071222F04002A84201D0B0427B
:101DA00007D14D6923F4406343EA85038D6943EA13
:101DB000850343608461496881630262F0BD00006D
:101DC000002C014000340140F0B5026A036A23F49C
:101DD000807303624368C46922F4007224F07305BF
:101DE0000C68124E2C438D6842EA05220E4DA84223
:101DF00001D0B04206D1CF6822F4006242EA072245
:101E000022F48062A84201D0B04207D14D6923F488
:101E1000405343EA05138D6943EA05134360C461E7
:101E20004968C1630262F0BD002C014000340140EA
:101E300030B5046A026A22F4805202624268C369C1
:101E40000D6823F4E64343EA05238D6824F4005427
:101E500044EA0534084DA84202D0084DA84204D1F6
:101E60004D6922F4804242EA85124260C3614968AA
:101E70000164046230BD0000002C014000340140C8
:101E800010B5036A046A24F001040462846924F032
:101E9000F00444EA021423F00A020A438461026255
:101EA00010BD10B5036A046A24F01004046284694A
:101EB00023F0A00324F4704444EA023243EA0111FF
:101EC0008261016210BDFEE70907090E002804DBEC
:101ED00000F1E02080F80014704700F00F0000F1DE
:101EE000E02080F8141D7047FEF770FBFFF751FEED
:101EF000FFF73CFCFFF794FCFFF76AFDFFF7CAFC15
:101F0000FFF718FD012220211748FEF74CFB0122A4
:101F100020211648FEF747FB1548FFF77DF90421FD
:101F20001448FFF793FB04211348FFF78FFB0621AA
:101F300040F21520FEF7CEF9104D4FF47A770024C9
:101F400005EBC400406800F035F8064655F834004B
:101F500000F030F8314600F013F8641C1B2CEFD36E
:101F60003846FEF7D7F9EAE7000C014000180140B7
:101F7000B001002020010020680100202400002082
:101F80000B460B4910B501EB8000022150F8040C00
:101F9000FEF7A0F94FF496705843FEF7BBF9022103
:101FA0000020FEF797F9BDE810406420FEF7B2B9B3
:101FB0000800002041000B0ED3F19E0208D950F416
:101FC00000034FEA032323FA02F048BF4042704760
:101FD00010B500F00AF800BF499224800020704735
:101FE0006FF0004282EA200070470EF1020E2EF0E0
:101FF000030E5EF8044B244204D44FEA4102B2F1CE
:102000007F4F11D84FEA4003B3F17F4F0CD80ED168
:102010004FEAD07CB2F17F4F0CEB4C0C0CF1020C70
:1020200008BF4CEBD17C04E04FF0080C01E04FEA14
:10203000D17C0CEB4C0324FA03F404F00704B4F154
:10204000040C06D20EEB840CBDE810404CF0010CE1
:102050006047DFE80CF0070802024FF00040A0F5EF
:10206000800010BD0846420018BFD2F1807288BFC0
:1020700000F0004010BD0102020304050607080934
:102080000A0B0C0D0E0F10100102020304050607C7
:1020900008090A0B0C0D0E0F1010000000000000C4
:1020A0000000010203040607080900000000010205
:1020B00003040000D4200008000000200C010000F0
:1020C0006C010008E02100080C0100204C07000012
:1020D0008801000800000000010000000B02000061
:1020E0004B02000093020000BA020000100300003F
:1020F00070030000DC030000000040400000803F4F
:10210000000040400000003F000040400000003F51
:10211000000080400000803F0000A0400000803FA1
:10212000000040400000803F000000400000803F71
:1021300000000040000000400000803F0000803FA1
:102140000000803F0000003F0000803F0000003F93
:10215000000000400000803F000040400000803F41
:10216000000040400000803F0000E0400000803F51
:102170000000E040000000400000C0400000803F40
:10218000000040400000803F000000400000004090
:102190000000C0400000803F000040400000803F41
:1021A00000000040000000400000C0400000803FF0
:1021B000000040400000803F000000400000803FE1
:1021C0000000803F0000803F0000803F0000804012
:1021D00001000000100000000000000000127A0062
:0400000508000131BD
:00000001FF
