:020000040800F2
:10000000B805002049010008F71E00080F1C000871
:10001000F51E00080D0200084D2600080000000033
:10002000000000000000000000000000692000083F
:100030000F02000800000000F91E00086B200008F5
:10004000630100086301000863010008891F0008BC
:1000500063010008630100086301000863010008F0
:10006000630100081102000817020008630100087C
:1000700063010008630100086301000863010008D0
:1000800063010008630100086301000863010008C0
:1000900063010008630100086301000863010008B0
:1000A00063010008630100086301000863010008A0
:1000B0006301000863010008630100086301000890
:1000C0006301000863010008630100086301000880
:1000D0006301000825260008630100086301000889
:1000E00063010008FD1E00086301000863010008A9
:1000F0006301000863010008630100086301000850
:10010000630100086301000863010008630100083F
:100110006301000863010008F12000086301000882
:10012000630100086301000863010008630100081F
:10013000DFF810D000F042F800480047812800089E
:10014000AFF30080B8050020064880470648004706
:10015000FEE7FEE7FEE7FEE7FEE7FEE7FEE7FEE777
:10016000FEE7FEE7EF20000831010008D2B201E00F
:1001700000F8012B491EFBD270470022F6E710B5AC
:1001800013460A4604461946FFF7F0FF204610BD05
:1001900030B50B46014600202022012409E021FA57
:1001A00002F59D4205D303FA02F5491B04FA02F554
:1001B0002844151EA2F10102F1DC30BD064C074DAA
:1001C00006E0E06840F0010394E807009847103427
:1001D000AC42F6D3FFF7B0FFAC290008CC290008E9
:1001E00080B144F6206191FBF0F007490A68D062C3
:1001F000C8600A6800EBD070401090630968002066
:10020000486270470120F0E79C000020FEE770473D
:10021000082000F0D5B8102000F0D2B872B6FEE782
:1002200010B590F821100022022905D00421816325
:1002300080F82020012010BD01680B6823F00E0318
:100240000B6001680B6823F001030B6090F84030ED
:10025000C46B012101FA03F3636080F8211080F878
:100260002020104610BD00002DE9F05F90F821100D
:100270000024022903D004218163012485E0016860
:100280000A6822F00E020A6001680A6822F0010280
:100290000A603F4E3E4FB215DFF8F4C0DFF8F09031
:1002A000DFF8ECA0DFF8E8B0DFF8E4E00168783FC1
:1002B00013011502ACF1640CA9F15009AAF13C0A32
:1002C000ABF1280BAEF1140E4FF48018B14227D9D0
:1002D000B9420ED0614512D049451DD0514518D0C4
:1002E000594518D0714501D1424615E0294EB14219
:1002F00001D1012210E0274E1436B14201D1102263
:100300000AE0244E2836B14206D0224A3C329142BD
:1003100001D11A4600E02A461E49091F0A602BE057
:10032000B94213D0614517D0494522D051451DD05F
:1003300059451DD0714501D142461AE0B14202D162
:100340004FF0807215E0134EB14201D1012210E04E
:10035000104E1436B14201D110220AE00D4E28365B
:10036000B14206D00B4A3C32914201D11A4600E01C
:100370002A46074980394A60012180F8211000216E
:1003800080F82010416B01B188472046BDE8F09FFE
:10039000800002400804024070B5044600F026F9CF
:1003A0000546601C02D004480078044400F01EF9A1
:1003B000401BA042FAD370BD2C0000207047000003
:1003C000044910B50A68024202D00860FFF7F6FF40
:1003D00010BD0000140401402DE9F84FDFF8C8916A
:1003E0000024A9F1040B23460F2709F1040AABF1FD
:1003F000040ED1E00125A54006EA0502AA4276D105
:10040000DFF8A8C14E68A6EB0C0866452BD00DDCC2
:10041000032E34D005DC36B3012E19D0022E2FD195
:100420001BE0112E16D0122E2AD119E0B8F5881F24
:1004300019D006DCB8F5803F15D0B8F5801F1FD164
:1004400011E0B8F5001F0ED0B8F5041F18D10AE06E
:10045000CB6815E0CB681B1D12E0CB6808330FE0BA
:10046000CB680C330CE08B682BB1012B4FF00803E9
:1004700003D0456104E0042302E0056100E00023AD
:10048000FF2A01D8064601E000F104064FEA840580
:1004900001D9A5F12005D6F8008007FA05FC28EA65
:1004A0000C0803FA05F548EA0508C6F800804D680F
:1004B000ED0070D53E4DAE6946F00106AE61AD6906
:1004C00024F0030605F0010500953A4D06EB050CF6
:1004D000DCF80850A607360F07FA06F825EA0805E3
:1004E000DFF8D480404503D14FF0000825E052E00A
:1004F000DFF8C880404502D14FF001081DE0DFF869
:10050000C080404502D14FF0020816E0DFF8B48009
:10051000404502D14FF003080FE0DFF8AC804045C2
:1005200002D14FF0040808E0DFF8A080404502D176
:100530004FF0050801E04FF0060808FA06F848EA0F
:100540000508CCF808804D68D9F80060ED024D46EA
:1005500001D5164300E096432E604D68DAF800603E
:10056000AD02554601D5164300E096432E604D6816
:10057000DBF80060AD035D4601D5164300E096430D
:100580002E604D68DEF80060ED03754601D5164318
:1005900000E096432E60641C0A681646E2407FF431
:1005A00029AFBDE8F88F00000804014000001110D9
:1005B000001002400000014000080140000C014012
:1005C000001001400014014000180140001C0140CF
:1005D000C26821EA02030A4043EA0241016170470E
:1005E0000AB1016170470904FBE700000148806817
:1005F000704700002C0000200248816802781144F6
:10060000816070472C000020074810B5016841F058
:1006100010010160032000F075F80F2000F006F8CB
:1006200000F024F8002010BD0020024070B50D4DF0
:1006300004464FF47A712878B1FBF0F00A49096852
:10064000B1FBF0F000F05BFD48B9102C07D200229E
:100650002146501E00F036F800206C6070BD01206D
:1006600070BD00002C000020380000200C4808B5A8
:10067000816941F001018161816901F0010100910D
:10068000C16941F08051C161C06900F080500090A3
:100690000448416821F0E06141F00071416008BD0B
:1006A0000010024000000140002809DB00F01F029A
:1006B000012191404009800000F1E020C0F80011C4
:1006C00070470000F0B40E4B1B680C46C3F30223C6
:1006D000C3F10705042D00D90425191D072901D2EE
:1006E000002300E0DB1E012606FA05F1491E214029
:1006F00099409E40761E16403143F0BC01F0B8BFD1
:100700000CED00E0064900F0070208684FF6FF0311
:10071000184040EA0220034A104308607047000076
:100720000CED00E00000FA05014901200862704765
:1007300000000E4210B501460020284C04292FD09D
:100740000BDC012930D0022929D100F06BF9616856
:10075000C1F38131491C49001FE0082920D010292C
:100760001DD161682268D20119D51D48C1F38342A9
:10077000C903805C0AD56168194AC1F34041921EE1
:10078000515C184AB2FBF1F1484301E01649484375
:100790006168490203D440000321B0FBF1F010BDB1
:1007A000BDE8104000F04EB9226AC2F301210129D0
:1007B00003D1920701D5C80310BD022905D1626A91
:1007C000920702D549F6404010BD0329FCD12168AB
:1007D0008903F9D54FF2244010BD000000100240FB
:1007E0008429000800127A0000093D002DE9F84331
:1007F00005460078354CC00754D0E0690026C0009B
:1008000008D4E06940F08050E061E069012600F022
:10081000805000902E480168C90512D401688046B6
:1008200041F480710160FFF7E1FE074605E000BF7B
:10083000FFF7DCFEC01B642823D8D8F80000C005F1
:10084000F6D5206A10F4407021D0A98801F44071D7
:1008500081421CD0206A1F49012220F440700A60A6
:1008600000220A602062C00711D0FFF7BFFE0746D2
:1008700041F2883808E000BFFFF7B8FEC11B4145D0
:1008800002D90320BDE8F883206A8007F4D5206AE6
:10089000696820F44070084320621EB1E06920F0CE
:1008A0008050E0612878800705D56068A96820F449
:1008B0004040084360602878C00605D560686969D3
:1008C00020F48000084360600020DBE70010024055
:1008D00000700040400442422DE9F0470F460500F9
:1008E00061D0434E306800F00700B84209D230684A
:1008F00020F0070038433060306800F00700B8424D
:1009000051D128683B4C810712D5400703D5606858
:1009100040F4E06060602878000703D5606840F428
:10092000605060606068A96820F0F0000843606073
:100930002878C00728D06868012810D021680228CC
:1009400010D0890700292EDA616821F003010143E4
:100950006160FFF74BFE804641F288390DE0216867
:100960008903EFE78901EDE7FFF740FEA0EB0801FF
:10097000494502D90320BDE8F0876068696800F046
:100980000C00B0EB810FEFD1306800F00700B842E7
:100990000BD9306820F0070038433060306800F031
:1009A0000700B84201D00120E5E72878400705D5C7
:1009B0006068E96820F4E060084360602878000718
:1009C00006D56068296920F4605040EAC100606083
:1009D00000F038F86168084AC1F30311515CC8405F
:1009E0000649086006480068FFF720FE0020C2E7BD
:1009F0000020024000100240942900083800002026
:100A0000300000200448054900684968044AC1F3E1
:100A10000221515CC840704738000020001002409D
:100A2000A42900080448054900684968044AC1F33C
:100A3000C221515CC84070473800002000100240BD
:100A4000A42900080E4A51680E4801F00C03042B3B
:100A500011D0082B0FD10C48C1F38343C903C05CEC
:100A60000AD55168084AC1F34041921E515C054ABB
:100A70005043B0FBF1F07047044948437047000011
:100A80000010024000127A007229000800093D009F
:100A90002DE9F84F040070D02078C04DC00749D030
:100AA0006868C0F38100012807D06868C0F381003E
:100AB000022809D16868C00306D52868800339D5A3
:100AC00060680028E7D035E06068B0F5803F0BD063
:100AD00010B1B0F5A02F11D0286820F48030286024
:100AE000286820F4802002E0286840F480302860E4
:100AF000606890B1FFF77AFD06460AE0286840F486
:100B000080202860F0E700BFFFF770FD801B64289D
:100B100073D828688003F7D50CE0FFF767FD064619
:100B200005E000BFFFF762FD801B6428F0D828684D
:100B30008003F7D420789A4E80074FF001094FF0D8
:100B4000000839D5686810F00C0F07D06868C0F34A
:100B50008100022809D16868C00306D4286880078C
:100B600014D52069012808D110E02069B0B1C6F879
:100B70000090FFF73BFD074605E00AE1FFF736FD71
:100B8000C01B0228C4D828688007F7D52868616987
:100B900020F0F80040EAC10028600DE0C6F80080AF
:100BA000FFF724FD074604E0FFF720FDC01B0228E5
:100BB00023D828688007F7D4207800072CD57948F7
:100BC000A169D9B1C0F80090FFF710FD074604E015
:100BD000FFF70CFDC01B02280FD8686A8007F7D505
:100BE00071484FF4FA510068B0FBF1F0009000BF7B
:100BF0000098411E0091FAD20EE080E0C0F800801B
:100C0000FFF7F4FC074604E0FFF7F0FCC01B0228E6
:100C100075D8686A8007F7D42078400760D5E869FE
:100C20000027C00008D4E86940F08050E861E86916
:100C3000012700F0805000905C480168C90513D47A
:100C40000168834641F480710160FFF7CFFC824662
:100C500006E000BFFFF7CAFCA0EB0A0064284ED8EC
:100C6000DBF80000C005F5D5E06801280AD008B11E
:100C7000052813D0286A20F001002862286A20F095
:100C8000040002E0286A40F001002862E06841F2B6
:100C9000883B98B1FFF7AAFC82460BE0286A40F037
:100CA00004002862EEE700BFFFF7A0FCA0EB0A01FA
:100CB00059455AD8286A8007F6D50CE0FFF796FC0C
:100CC000824605E0FFF792FCA0EB0A0159454CD89B
:100CD000286A8007F6D41FB1E86920F08050E861E7
:100CE000E06988B36968C1F38101022944D0022810
:100CF000C6F8608004D0FFF779FC044638E034E0A1
:100D0000FFF774FC074604E0FFF770FCC01B0228E5
:100D10002BD828688001F7D4206AB0F5803F05D130
:100D20006868A16820F4003008436860D4E90801CD
:100D30000843696821F4741108436860C6F860903C
:100D4000FFF754FC044606E025E000BFFFF74EFC29
:100D5000001B022809D828688001F7D51BE000BFD6
:100D6000FFF744FC001B022802D90320BDE8F88FDE
:100D700028688001F4D40EE00128F7D06868226A60
:100D800000F48031914204D1616A00F4701088420D
:100D900001D00120EAE70020E8E70000001002404F
:100DA00000004242800442423800002000700040AF
:100DB0007047704710B5044600680168C90717D02E
:100DC0004168C90714D040684007204607D5FFF79F
:100DD000F0FF21686FF004004860042002E0FFF794
:100DE000E7FF012060742068416821F00101416043
:100DF00010BD80B1017C01290FD0012101740222B4
:100E000042740268136843F00103136041740021C7
:100E100001740846704701207047022070477047F0
:100E200010B504460068016889070AD54068800744
:100E300007D52046FFF7F3FF2068416821F0020143
:100E4000416003494FF4003008600120607410BD18
:100E50001404014070B5040003D0607C002610B17A
:100E600005E0012070BD2674204600F03DF8022008
:100E70006074204600F026F9042550BB204601F09E
:100E80004CF830BB2068416821F007014160A06840
:100E900020B11448016821F0010101601148001FD0
:100EA0000168A26821F46071114301606068411C0F
:100EB00004D10120FFF73EFC58B1401E2268C0F368
:100EC00003419160216880B2C860204601F040F87B
:100ED00008B16574C5E7E67301206073A0736074A0
:100EE000002070BD306C004008B50068154988428C
:100EF00026D1FFF719FC1448C16941F00061C161B6
:100F0000C069124900F000600090012008600022D2
:100F100011460320FFF7D6FB0320FFF7C5FB002295
:100F200005212920FFF7CEFB2920FFF7BDFB08484C
:100F3000FFF75FFF002803D0BDE80840FFF76EB958
:100F400008BD000000280040001002403C0442425E
:100F5000400000202DE9F0410D4604003BD0C5B310
:100F6000207C01283AD04FF0010884F8108002203C
:100F70006074E87872B300F0C7FFE073687800F03F
:100F8000C3FF6073A87800F0BFFFA073C2B2617B9B
:100F9000E07B01F016F820732870204601F001F87C
:100FA0004FF46161B0FBF1F1002518292DD9182209
:100FB000B1FBF2F1A1EB011101EB4101C1EB011118
:100FC00000EBC1163146204601F03AF80427C8B9B3
:100FD0000BE000E004E00120BDE8F0810220FBE727
:100FE000E07368786073A878CFE7204600F0D2FFFE
:100FF000411C0AD0B04208D206490144204601F003
:101000000BF810B167742574E5E784F81180257436
:101010000020E1E7805101002DE9F0410D46040078
:1010200024D01DB3207C012823D04FF0010884F880
:101030001080022060742878EAB100F065FF4FF458
:10104000616100FB01F6687800F05EFFC0EB001004
:1010500006EB8006A87800F057FF35182946204691
:1010600000F0EEFF0026042710BB0FE00120BDE8D2
:10107000F0810220FBE74FF4616148436978C1EBDE
:10108000011100EB8100A9784518E7E72068416865
:1010900021F005014160204600F07CFF411C0AD090
:1010A000A84208D206490144204600F0B5FF10B11D
:1010B00067742674DAE784F8118026740020D6E776
:1010C0008051010070B504000AD02068416821F009
:1010D00008014160FFF78AFA05464FF47A7608E086
:1010E000012070BDFFF782FA401BB04201D90320F6
:1010F00070BD206840680007F4D5002070BD10B5B1
:10110000401EB0F1807F01D3012010BD4FF0E024DC
:1011100060610F21601701F0ABFA0020A061072089
:101120002061002010BD70477047000070B590F836
:101130003C20012A2CD0012480F83C40022280F877
:101140003D2003685A689D6822F070060A683243A1
:101150005A60104B02689A420ED00F4B9A420BD045
:10116000B2F1804F08D00D4B9A4205D00C4B9A42F9
:1011700002D00C4B9A4204D1496825F080031943F0
:10118000916080F83D40002180F83C10084670BD19
:10119000022070BD002C01400034014000040040DA
:1011A00000080040000C004010B5040003D094F883
:1011B0003D0010B107E0012010BD002084F83C0084
:1011C000204600F01FF8022084F83D00211D206811
:1011D00000F094FF012084F8460084F83E0084F873
:1011E0003F0084F8400084F8410084F8420084F80D
:1011F000430084F8440084F8450084F83D00002052
:1012000010BD000008B5174A01681748914207D180
:10121000C16941F00201C161C06900F0020009E04A
:10122000124A914208D1C16941F00401C161C0690B
:1012300000F00400009008BD0D4A9142FBD1C16945
:1012400041F01001C161C069002200F0100000905F
:1012500004213620FFF736FABDE808403620FFF7B4
:1012600023BA0000000400400010024000080040C3
:101270000010004090F83D10012901D00120704776
:10128000022180F83D100168CA6842F00102CA607C
:1012900000680E4988420ED00D4988420BD0B0F14B
:1012A000804F08D00B49884205D00B49884202D0B4
:1012B0000A49884204D1816801F00701062903D058
:1012C000016841F00101016000207047002C0140DD
:1012D000003401400004004000080040000C0040C1
:1012E00070B5044690F83C000025012817D001266F
:1012F00084F83C60022084F83D002068826822F077
:10130000770222F47F4282600868502838D00DDCD2
:1013100020284FD005DC90B3102811D14AE00220DC
:1013200070BD302846D040280AD13BE060282FD03D
:1013300070280DD0B0F5805F03D0B0F5005F12D0FB
:10134000012584F83D60002084F83C00284670BDEB
:10135000CB68D1E90121206800F02BFF206881686B
:1013600041F0770109E0CB68D1E90121206800F064
:1013700020FF2068816841F480418160E1E719E045
:10138000CA684968206800F0E9FF5021206806E03B
:10139000CA684968206800F0F2FF6021206800F008
:1013A00012FFCEE7CA684968206800F0D7FF4021E5
:1013B0002068F4E7226801461046F0E770472DE9FF
:1013C000F04104460068C66805694FF00007A907A8
:1013D00013D5B10711D5F91E0161012020772068CE
:1013E00080698007204602D0FFF7E8FF04E000F0A4
:1013F000C5F8204600F057F92777680716D570071B
:1014000014D521686FF0040008610220207720685D
:10141000806910F4407F204602D0FFF7CFFF04E040
:1014200000F0ACF8204600F03EF92777280715D5E4
:10143000300713D521686FF0080008610420207779
:101440002068C0698007204602D0FFF7B7FF04E09C
:1014500000F094F8204600F026F92777E80616D524
:10146000F00614D521686FF010000861082020777D
:101470002068C06910F4407F204602D0FFF79EFF2D
:1014800004E000F07BF8204600F00DF92777E8072C
:1014900008D0F00706D021686FF0010008612046EF
:1014A00000F05CF9280608D5300606D521686FF0F3
:1014B000800008612046FFF736FE680608D57006F2
:1014C00006D521686FF040000861204600F074F9ED
:1014D000A8060AD5B00608D521686FF0200008617B
:1014E0002046BDE8F041FFF71FBEBDE8F0810000D7
:1014F00010B586B0002100910191029103911A4C20
:1015000003681A4902221A48A34219D18B6943F091
:1015100008038B618969039201F00801049120217D
:10152000CDE900126946FEF757FF1248416821F4E1
:10153000406141F0E06141F40061416006B010BDDE
:101540000D4CA342FAD18B6943F008038B61896982
:10155000039201F0080104918021CDE9001269464F
:10156000FEF73AFFEAE700000004004000100240E6
:10157000000C01400000014000080040704770B5B9
:10158000044690F83C0000260D4601280FD00120AB
:1015900084F83C006AB1042A1DD0082A2FD00C2AF6
:1015A0003FD00126002084F83C00304670BD022068
:1015B00070BD206800F010FE2068816941F00801CC
:1015C00081612068816921F004018161206881695D
:1015D0002A69114311E0206800F02EFE206881691D
:1015E00041F4006181612068816921F48061816139
:1015F000206881692A6941EA02218161D2E7206875
:1016000000F050FE2068C16941F00801C161206806
:10161000C16921F00401C1612068C1692A691143CF
:1016200011E0206800F072FE2068C16941F4006199
:10163000C1612068C16921F48061C1612068C1690C
:101640002A6941EA0221C161ACE710B5040003D068
:1016500094F83D0010B107E0012010BD002084F88F
:101660003C00204600F01EF8022084F83D00211DB9
:10167000206800F043FD012084F8460084F83E0015
:1016800084F83F0084F8400084F8410084F8420068
:1016900084F8430084F8440084F8450084F83D0051
:1016A000002010BD7047704710B50446022249B1B2
:1016B00004290ED0082913D094F84100012816D02F
:1016C000012010BD94F83E000128F9D184F83E2095
:1016D0000FE094F83F000128F2D184F83F2008E0A1
:1016E00094F840000128EBD184F8402001E084F810
:1016F00041200122206800F04FFD13492068134A61
:10170000884201D0904203D1436C43F400434364C8
:10171000206888420DD090420BD0B0F1804F08D0A5
:101720000B49884205D00B49884202D00A498842B9
:1017300004D1816801F00701062903D0016841F056
:1017400001010160002010BD002C01400034014067
:101750000004004000080040000C0040134A10B58F
:1017600042F21071904220D111480023114C82683E
:10177000012A0BD1426802F5847242608A4201DA82
:10178000114601E0C0E901132268916381680029D4
:101790000BD14168A1F584714160002902DC01216F
:1017A000C0E9013121684068886310BDE400002071
:1017B0000000002054000020704770477047000070
:1017C000F8B5016804460868CA684B6910F00F0F45
:1017D0004FF0000559D003F0010602F4907737432B
:1017E00065D0C10705D0D10503D5616C41F0010179
:1017F0006164410705D5D90703D0616C41F002014E
:101800006164810705D5D90703D0616C41F00401FB
:101810006164010707D502F02001314303D0616CF8
:1018200041F008016164616C00293AD0800604D55A
:10183000900602D5204600F0E3FD20684069616C07
:10184000C0F38010090700D460B3204600F0B1FD5A
:1018500020684069400621D52068143050E8001FF8
:1018600021F0400140E80012002AF5D1E06BA8B158
:101870006D494163E06BFEF7F7FC002811D0E06B87
:10188000416B01B0BDE8F040084783060FD59306D1
:101890000DD52046BDE8F84000F0B2BD2046FFF768
:1018A0008DFFF8BD2046FFF789FF6564F8BD266B04
:1018B0002023012E7CD1C6067AD5D60678D50868B5
:1018C0004868009048694FF00206400640D5E16B39
:1018D000086840680004000CE8D0A28D8242E5D977
:1018E000E085886920282DD020680C3050E8001F42
:1018F00021F4807140E80012002AF5D120681430EC
:1019000050E8001F21F0010140E80012002AF5D143
:101910002068143050E8001F21F0400140E8001218
:10192000002AF5D184F84230256320680C3050E855
:10193000001F21F0100140E80012002AF5D1E06BF1
:10194000FEF76EFC6663A08DE18D401A81B22AE03D
:10195000A08DE18D401A81B2E08D0028A6D000292B
:10196000A4D022680C3252E8000F20F4907042E8B4
:101970000007002FF5D12068143050E8002F22F026
:10198000010240E80027002FF5D184F8423025639A
:1019900020680C3050E8002F22F0100240E80023AD
:1019A000002BF5D166632046FFF707FFF8BDFFE780
:1019B00005062BD5150629D594F841002128F5D127
:1019C000A068B0F5805F01D12069B0B1206A411CE8
:1019D0002162216800784860E08C401E0004000C01
:1019E000E084E3D12068C16821F08001C1602068F3
:1019F000C16841F04001C160D8E7206A0088C0F3A7
:101A000008004860206A801C2062E5E74006CDD5CA
:101A10005006CBD5CA68204622F04002CA6084F83E
:101A2000413000F0F3F8C1E7A323000870B50400CB
:101A300004D094F84100002510B106E0012070BDEB
:101A400084F84050204600F023F8242084F8410018
:101A50002068C16821F40051C160204600F032FDC9
:101A60002068016921F4904101612068416921F0F9
:101A70002A0141612068C16841F40051C160656478
:101A8000202084F8410084F842006563002070BD86
:101A900030B585B00024009401940294039400684A
:101AA000184988422CD11848816941F480418161EC
:101AB000816901F480410491816941F004018161EF
:101AC0008069124D00F0040004904FF40070009003
:101AD000022001900320039069462846FEF77CFC13
:101AE0002815CDE90004694628460294FEF774FCE7
:101AF000002203212520FEF7E5FD2520FEF7D4FD79
:101B000005B030BD0038014000100240000801401F
:101B100090F84230202B01D00220704721B11AB139
:101B20000023036300F02ABD012070470B4988425F
:101B300013D10C490A4A0878135C0A2B09D03F28B4
:101B400001D2401C08700878111801220348FFF7E1
:101B5000DFBF054B01201870F5E770476C010020CE
:101B60002C01002028000020000000202DE9F8436F
:101B7000044690F84100984616460D46202802D0AB
:101B80000220BDE8F88385B17EB100206064212089
:101B900084F84100FEF72AFDA6848146E684A06809
:101BA0002027B0F5805F02D003E00120E9E720693B
:101BB00010B12E4600250EE000260CE080212046C4
:101BC00000F0F7FCA8B9C6B116F8010B216848600F
:101BD000E08C401EE084E08C4B464FF00002CDF8D4
:101BE00000800028EAD14FF04001204600F0E1FCDF
:101BF00040B184F841700320C3E735F8020BC0F30D
:101C00000800E3E784F841700020BAE77047FEE778
:101C100070B586B00024284800940194029403947F
:101C2000816941F040018161816901F040010491C5
:101C3000816941F010018161816901F01001049115
:101C4000816941F004018161816901F0040104911D
:101C5000816941F0080181618069184E00F0080037
:101C60000490002220213046FEF7BAFC1820009094
:101C700013480125CDE9010569463046FEF7ACFB66
:101C80002020CDE900050220CDE90240694630461A
:101C9000FEF7A2FB002208210920FEF713FD092010
:101CA000FEF702FD002208210A20FEF70BFD0A20A4
:101CB000FEF7FAFC06B070BD0010024000180140AB
:101CC000000021101CB500241A4801941849009402
:101CD0000160611E41604FF480718160FFF7BAF8C6
:101CE00008B1FEF79BFA0B208DF804008DF8054033
:101CF0008DF80640002201A90E48FFF78DF908B1C2
:101D0000FEF78CFA01208DF8000003208DF8010009
:101D100017208DF802001A208DF803000022694672
:101D20000448FFF717F9002801D0FEF777FA1CBD29
:101D3000002800404000002010B58EB00024079419
:101D4000089409940A940B941C2168460C94FEF79D
:101D500014FA20481E4901608F21C0E9011442F2A3
:101D60000F71C0E9031480218161FFF71DFA08B1EA
:101D7000FEF754FA4FF48050079007A91548FFF773
:101D8000AFFA08B1FEF74AFA1248FFF75EFC08B155
:101D9000FEF744FA0B940BA90E480C94FFF7C6F912
:101DA00008B1FEF73BFA6020009041F288300190C4
:101DB000022002900422694604940648FFF7DFFBE4
:101DC00008B1FEF72BFA0348FFF792FB0EB010BDE7
:101DD000000400405400002010B58EB00024079489
:101DE000089409940A940B941C2168460C94FEF7FD
:101DF000C4F91F481D49016040F60F61C0E9011494
:101E000044F61F61C0E9031480218161FFF7CCF91A
:101E100008B1FEF703FA4FF48050079007A9144861
:101E2000FFF75EFA08B1FEF7F9F91148FFF70DFC6C
:101E300008B1FEF7F3F90B940BA90D480C94FFF7CA
:101E400075F908B1FEF7EAF96020CDE900040294C3
:101E50000422694606480494FFF791FB08B1FEF797
:101E6000DDF90348FFF744FB0EB010BD0008004049
:101E70009C0000201CB500240F4800940D490194DB
:101E8000016040F60F61C0E9011442F20F71C160B8
:101E900080218161FFF788F908B1FEF7BFF900944E
:101EA000694605480194FFF741F9002801D0FEF783
:101EB000B5F91CBD00100040E40000200C4810B52E
:101EC0000A4901604FF4E1314160002181600C2238
:101ED000C160C0E904128161C161FFF7A7FD00285C
:101EE00003D0BDE81040FEF799B910BD003801409D
:101EF0006C010020FEE7FEE7704700000148FEF796
:101F00008FBF000040000020010901EB810100F0BB
:101F10000F0000EB4100C0B2704770B50446FEF7F9
:101F200065FB05464FF47A7606E0FEF75FFB401B43
:101F3000B04201D9032070BD206840688006F4D506
:101F40002068416841F010014160002070BD000030
:101F500070B504460068416821F010014160FEF749
:101F600045FB05464FF47A7607E000BFFEF73EFBDF
:101F7000401BB04201D9032070BD20684068800634
:101F8000F4D5002070BD00000148FEF713BF00002B
:101F9000400000200168086A496A89B241EA0040AD
:101FA0007047006881698AB2C1698BB2816989B260
:101FB0008A4203D0C06961F31F40704743EA024080
:101FC0007047F0B56424C1EBC1030927A5000726BB
:101FD00003EB01130329B3FBF7F100F5FA60114499
:101FE00001440AD2401EB0FBF4F201EB9001B0FBB9
:101FF000F5F0891A0844001D08E0B0FBF4F201EB8B
:102000009001B0FBF5F0891A0844801CB0FBF6F192
:1020100006FB1100C0B2F0BD70B50D4606460024A7
:10202000FFF77BFF48B93168280C08623168A8B215
:1020300048623046FFF78CFF00B10124204670BD96
:1020400070B50D4606460024FFF767FF48B93168B2
:10205000280C88613168A8B2C8613046FFF778FF64
:1020600000B10124204670BD7047FEF7C5BA70B5B7
:1020700096B028216846FEF780F814210AA8FEF7DA
:102080007CF818210FA8FEF778F8092001240090A9
:102090004FF48030002504940694CDE90105022612
:1020A000CDE907604FF4E01009906846FEF7F0FCB8
:1020B00008B172B6FEE70F20CDE90A064FF4806042
:1020C000CDE90C5002210AA80E95FEF705FC08B1D7
:1020D00072B6FEE74FF40070CDE90F400FA8FEF78F
:1020E00085FB002801D072B6FEE716B070BD7047C0
:1020F0000148FFF764B90000E4000020F0B5026871
:10210000204C214D214E224F224B4FF0804CA042BB
:1021100009D0984207D0604505D0A84203D0B0420C
:1021200001D0B84204D122F0700E4A6842EA0E0291
:10213000A04209D0984207D0604505D0A84203D0FC
:10214000B04201D0B84203D122F44075CA682A4394
:102150004D6922F080022A4302608A68C2620A68DE
:102160008262A04201D0984201D109690163012134
:1021700041610169C90703D0016921F001010161D1
:10218000F0BD0000002C01400004004000080040A9
:10219000000C00400034014010B501F01F03012184
:1021A000046A99408C430462016A9A4011430162B7
:1021B00010BD10B5846842EA032224F47F440A4328
:1021C0002243826010BD826822F070020A4342F00E
:1021D0000701816070470000F0B5036A026A22F0CF
:1021E0000102026242688469124E24F073050C6891
:1021F0002C4323F002058B682B430D4DA84201D0E0
:10220000B04205D123F00807CB683B4323F0040319
:10221000A84201D0B04205D14D6922F44072154365
:102220008A692A4342608461496841630362F0BD60
:10223000002C014000340140F0B5026A036A23F02B
:1022400010030362436884690D6824F4E64444EA99
:1022500005248D6822F0200242EA05120F4D104E2F
:10226000A84201D0B04206D1CF6822F0800242EAF3
:10227000071222F04002A84201D0B04207D14D69B6
:1022800023F4406343EA85038D6943EA8503436091
:102290008461496881630262F0BD0000002C014046
:1022A00000340140F0B5026A036A23F480730362CC
:1022B0004368C46922F4007224F073050C68124E5E
:1022C0002C438D6842EA05220E4DA84201D0B0424F
:1022D00006D1CF6822F4006242EA072222F480622B
:1022E000A84201D0B04207D14D6923F4405343EADC
:1022F00005138D6943EA05134360C4614968C163EE
:102300000262F0BD002C01400034014030B5046A87
:10231000026A22F4805202624268C3690D6823F4A3
:10232000E64343EA05238D6824F4005444EA053467
:10233000084DA84202D0084DA84204D14D6922F4AC
:10234000804242EA85124260C361496801640462C6
:1023500030BD0000002C01400034014010B5036A7C
:10236000046A24F001040462846924F0F00444EA5D
:10237000021423F00A020A438461026210BD10B500
:10238000036A046A24F010040462846923F0A00341
:1023900024F4704444EA023243EA0111826101628A
:1023A00010BD10B5406A0021C185C184FFF706FA4F
:1023B00010BD01680C3151E8002F22F4907241E801
:1023C0000023002BF5D10168143151E8002F22F0D1
:1023D000010241E80023002BF5D1016B012909D14D
:1023E00001680C3151E8002F22F0100241E800236F
:1023F000002BF5D1202180F84210002101637047A5
:1024000008B590F84210222901D0022008BD826848
:102410004FF480539A4201D1016921B1816A9A42F5
:102420001BD04AB10AE00268816A5268C2F308020E
:102430000A80816A891C08E0026972B102685268E8
:1024400002F07F020A70816A491C8162C18D491EB7
:102450000904090CC18503D01BE002685268F1E74A
:102460000168CA6822F02002CA600168CA6822F4C2
:102470008072CA6001684A6922F001024A61202123
:1024800080F8421000214163026B012A03D0FFF75C
:102490004DFB002008BD016301680C3151E8002F9D
:1024A00022F0100241E80023002BF5D101680A68F0
:1024B000D20602D50A6849680091818DFFF77DF93F
:1024C000E7E7000070B5044600680169E26821F49E
:1024D0004051114301612169A068084361690843C3
:1024E0002168CA6841F20C639A430243CA602068BB
:1024F0004169A26921F44071114341611E4920687C
:10250000884202D1FEF78EFA01E0FEF77BFA00EB7B
:10251000C00101EB0012606864218000B2FBF0F39F
:10252000B3FBF1F36FF018067343B2FBF0F5B2FBA7
:10253000F0F605EB8305322303EB0515B5FBF1F54A
:10254000B6FBF1F605F0F00505EB0615B2FBF0F66B
:10255000B2FBF0F0B0FBF1F06FF01802504306EB65
:10256000800003EB0010B0FBF1F0216800F00F00D9
:102570002844886070BD0000003801408162828577
:10258000C28500214164222180F84210016921B1F5
:102590000168CA6842F48072CA6001684A6942F000
:1025A00001024A610068C16841F02001C160002059
:1025B00070472DE9F843984617460D460446089E95
:1025C00024E0701C22D0FEF711F8A0EB0800B04206
:1025D0001AD8CEB12068C168490717D5802D15D00B
:1025E000402D13D00168C94309070FD401680025A5
:1025F000406800902046FFF7DCFE0820606484F805
:1026000040500120BDE8F8830320FBE72068006804
:1026100035EA000004D00020B842D2D00020F1E713
:102620000120F9E708B50748FFF7CAF80548006830
:102630000168C90605D5016840680349009001207A
:10264000087008BD6C01002000000020FEE70000BB
:102650000FB4054B10B503A9044A029800F028F8FE
:1026600010BC5DF814FB0000692800083C00002045
:102670000907090E002804DB00F1E02080F80014AF
:10268000704700F00F0000F1E02080F8141D704743
:1026900002E008C8121F08C1002AFAD1704770472B
:1026A000002001E001C1121F002AFBD17047000089
:1026B0002DE9FF4F8BB09A460F460546002606E0EF
:1026C00025280BD052460D9990476D1C761C287812
:1026D0000028F5D10FB03046BDE8F08F0024A046A9
:1026E0000122604900E0044315F8013F203B02FA53
:1026F00003F00842F7D128782E2817D115F8010FDA
:1027000044F004042A280ED06FF02F022878A0F19C
:10271000300109290AD808EB880102EB410100EBDE
:1027200001086D1CF2E757F8048B6D1C28786928A6
:102730003ED006DC0028CDD063280BD0642804D11D
:1027400036E0732810D075284BD052460D9990472B
:10275000761C85E017F8040B8DF8000000208DF83A
:102760000100E946012003E057F8049B4FF0FF30D9
:1027700061074FF0000401D40AE0641C44450DDAFF
:102780008442FADB19F804100029F6D106E0641C33
:102790008442FCDB19F804100029F8D1264404E037
:1027A00019F8010B52460D999047641EF8D257E074
:1027B00001CF4FF00A0B002802DA40422D2102E03F
:1027C000210504D52B218DF82410012103E0E10718
:1027D00005D02021F7E70DF1200908910CE0002138
:1027E000F9E701CF4FF00A0BF9E75946FDF7D0FCA6
:1027F00001F1300209F8012D0028F6D1ADEB0900F6
:1028000000F1200B600701D44FF00108D84502DD2C
:10281000A8EB0B0000E000208046002406E009A899
:102820005246005D0D999047641C761C08988442BE
:10283000F5DB04E0302052460D999047761CB8F144
:102840000001A8F10108F5DC05E019F8010B52467A
:102850000D999047761CBBF10001ABF1010BF4DC44
:102860006D1C34E70928010013B54FF6FF730122F0
:1028700069460248FFF77AF900981CBD6C010020F8
:10288000FDF7C2FEFFF7F3FBFFF7C2F9FFF71AFAF5
:10289000FFF7F0FAFFF750FAFFF79EFAFFF70EFB8B
:1028A00025480068C16841F01001C1600122234938
:1028B0002148FFF72DF9012220212148FDF790FE44
:1028C000204D012220212846FDF78AFE1E48FEF7F2
:1028D000D1FC04211D48FEF7E7FE04211C48FEF749
:1028E000E3FE06210020FDF77BFC0024A946DFF86B
:1028F0004C80184E184F25464FF47A7A20214846CE
:10290000641CFDF765FE214614A0FFF7A1FE307898
:1029100001280CD13570397812A008F80150074908
:10292000FFF796FE3D7040210448FDF726FC504617
:10293000FDF732FDE2E700006C0100202C010020D1
:10294000000C014000180140E40000205400002069
:102950009C0000200000002028000020693D256424
:102960000A0D0000726563763A25730A0D000000B7
:10297000010202030405060708090A0B0C0D0E0FDD
:102980001010010202030405060708090A0B0C0DCA
:102990000E0F1010000000000000000001020304F0
:1029A000060708090000000001020304CC29000802
:1029B0000000002040000000902600080C2A0008BB
:1029C0004000002078050000A0260008000000005C
:1029D00000000000010000000B0200004B0200009C
:1029E00093020000BA020000100300007003000010
:1029F000DC030000000000000100000010000000E7
:0C2A00000000000000127A00000000003E
:0400000508000131BD
:00000001FF
