:020000040800F2
:1000000078060020490100089F1F0008931C000883
:100010009D1F000885020008F5260008000000006A
:100020000000000000000000000000001121000896
:100030008702000800000000A11F0008132100082B
:100040006301000863010008630100083120000813
:1000500063010008630100086301000863010008F0
:1000600063010008890200088F020008630100088C
:1000700063010008630100086301000863010008D0
:1000800063010008630100086301000863010008C0
:1000900063010008630100086301000863010008B0
:1000A00063010008630100086301000863010008A0
:1000B0006301000863010008630100086301000890
:1000C0006301000863010008630100086301000880
:1000D00063010008CD2600086301000863010008E1
:1000E00063010008A51F0008630100086301000800
:1000F0006301000863010008630100086301000850
:10010000630100086301000863010008630100083F
:1001100063010008630100089921000863010008D9
:10012000630100086301000863010008630100081F
:10013000DFF810D000F06EF800480047C92B000827
:10014000AFF3008078060020064880470648004745
:10015000FEE7FEE7FEE7FEE7FEE7FEE7FEE7FEE777
:10016000FEE7FEE79721000831010008202A04DBA2
:10017000203A21FA02F00021704721FA02F3D04020
:10018000C2F120029140084319467047D2B201E003
:1001900000F8012B491EFBD270470022F6E710B58C
:1001A00013460A4604461946FFF7F0FF204610BDE5
:1001B0002DE9F05F0546002092469B46884606469C
:1001C000814640241BE02846414647462246FFF729
:1001D000CDFF53465A46C01A914110D311461846D6
:1001E000224600F029F82D1A67EB01084F462246F7
:1001F0000120002100F020F817EB00094E41201EDD
:10020000A4F10104DFDC484631462A464346BDE8F6
:10021000F09F0000064C074D06E0E06840F0010347
:1002200094E8070098471034AC42F6D3FFF784FFF8
:100230007833000898330008202A04DB203A00FABB
:1002400002F1002070479140C2F1200320FA03F32D
:10025000194390407047000080B144F6206191FB43
:10026000F0F007490A68D062C8600A6800EBD070F5
:100270004010906309680020486270470120F0E751
:10028000A0000020FEE77047082000F0DFB8102033
:1002900000F0DCB872B6FEE710B590F8211000222D
:1002A000022905D00421816380F82020012010BD9F
:1002B00001680B6823F00E030B6001680B6823F0E4
:1002C00001030B6090F84030C46B012101FA03F385
:1002D000636080F8211080F82020104610BD0000D7
:1002E0002DE9F05F90F821100024022903D00421A9
:1002F0008163012485E001680A6822F00E020A6029
:1003000001680A6822F001020A603F4E3E4FB215B2
:10031000DFF8F4C0DFF8F090DFF8ECA0DFF8E8B029
:10032000DFF8E4E00168783F13011502ACF1640CDA
:10033000A9F15009AAF13C0AABF1280BAEF1140E59
:100340004FF48018B14227D9B9420ED0614512D07E
:1003500049451DD0514518D0594518D0714501D196
:10036000424615E0294EB14201D1012210E0274E4C
:100370001436B14201D110220AE0244E2836B1428F
:1003800006D0224A3C32914201D11A4600E02A4668
:100390001E49091F0A602BE0B94213D0614517D0EE
:1003A000494522D051451DD059451DD0714501D137
:1003B00042461AE0B14202D14FF0807215E0134E6E
:1003C000B14201D1012210E0104E1436B14201D1E8
:1003D00010220AE00D4E2836B14206D00B4A3C32BC
:1003E000914201D11A4600E02A46074980394A6005
:1003F000012180F82110002180F82010416B01B10B
:1004000088472046BDE8F09F800002400804024073
:1004100070B5044600F030F90546601C02D004486F
:100420000078044400F028F9401BA042FAD370BDC4
:10043000300000200121044A082803D0102800D1F0
:1004400011707047517070472A000020044910B5A0
:100450000A68024202D00860FFF7ECFF10BD0000FE
:10046000140401402DE9F84FDFF8C8910024A9F1E8
:10047000040B23460F2709F1040AABF1040ED1E067
:100480000125A54006EA0502AA4276D1DFF8A8C1F7
:100490004E68A6EB0C0866452BD00DDC032E34D03D
:1004A00005DC36B3012E19D0022E2FD11BE0112E00
:1004B00016D0122E2AD119E0B8F5881F19D006DC03
:1004C000B8F5803F15D0B8F5801F1FD111E0B8F501
:1004D000001F0ED0B8F5041F18D10AE0CB6815E054
:1004E000CB681B1D12E0CB6808330FE0CB680C33E0
:1004F0000CE08B682BB1012B4FF0080303D0456152
:1005000004E0042302E0056100E00023FF2A01D893
:10051000064601E000F104064FEA840501D9A5F181
:100520002005D6F8008007FA05FC28EA0C0803FA33
:1005300005F548EA0508C6F800804D68ED0070D55D
:100540003E4DAE6946F00106AE61AD6924F003068A
:1005500005F0010500953A4D06EB050CDCF8085056
:10056000A607360F07FA06F825EA0805DFF8D48053
:10057000404503D14FF0000825E052E0DFF8C88085
:10058000404502D14FF001081DE0DFF8C080404532
:1005900002D14FF0020816E0DFF8B480404502D1E6
:1005A0004FF003080FE0DFF8AC80404502D14FF078
:1005B000040808E0DFF8A080404502D14FF00508AC
:1005C00001E04FF0060808FA06F848EA0508CCF8FA
:1005D00008804D68D9F80060ED024D4601D51643FC
:1005E00000E096432E604D68DAF80060AD02554693
:1005F00001D5164300E096432E604D68DBF800609D
:10060000AD035D4601D5164300E096432E604D686C
:10061000DEF80060ED03754601D5164300E0964311
:100620002E60641C0A681646E2407FF429AFBDE8DC
:10063000F88F000008040140000011100010024073
:100640000000014000080140000C01400010014082
:100650000014014000180140001C0140C26821EA5A
:1006600002030A4043EA0241016170470AB1016195
:1006700070470904FBE700000148806870470000EC
:100680003000002002488168027811448160704780
:1006900030000020074810B5016841F010010160EA
:1006A000032000F075F80F2000F006F800F024F8A1
:1006B000002010BD0020024070B50D4D04464FF4DF
:1006C0007A712878B1FBF0F00A490968B1FBF0F0C3
:1006D00000F05BFD48B9102C07D200222146501EC5
:1006E00000F036F800206C6070BD012070BD000085
:1006F000300000203C0000200C4808B5816941F022
:1007000001018161816901F001010091C16941F03C
:100710008051C161C06900F0805000900448416878
:1007200021F0E06141F00071416008BD001002401D
:1007300000000140002809DB00F01F020121914068
:100740004009800000F1E020C0F80011704700006F
:10075000F0B40E4B1B680C46C3F30223C3F107052C
:10076000042D00D90425191D072901D2002300E01A
:10077000DB1E012606FA05F1491E214099409E40E4
:10078000761E16403143F0BC01F0C6BF0CED00E010
:10079000064900F0070208684FF6FF03184040EAD8
:1007A0000220034A10430860704700000CED00E08F
:1007B0000000FA05014901200862704700000E425E
:1007C00010B501460020284C04292FD00BDC01294C
:1007D00030D0022929D100F06BF96168C1F3813171
:1007E000491C49001FE0082920D010291DD161684B
:1007F0002268D20119D51D48C1F38342C903805C28
:100800000AD56168194AC1F34041921E515C184AE9
:10081000B2FBF1F1484301E01649484361684902DF
:1008200003D440000321B0FBF1F010BDBDE810403F
:1008300000F04EB9226AC2F30121012903D19207C7
:1008400001D5C80310BD022905D1626A920702D5FD
:1008500049F6404010BD0329FCD121688903F9D530
:100860004FF2244010BD0000001002405033000839
:1008700000127A0000093D002DE9F8430546007892
:10088000354CC00754D0E0690026C00008D4E069A8
:1008900040F08050E061E069012600F08050009057
:1008A0002E480168C90512D40168804641F4807160
:1008B0000160FFF7E1FE074605E000BFFFF7DCFE41
:1008C000C01B642823D8D8F80000C005F6D5206ADC
:1008D00010F4407021D0A98801F4407181421CD0ED
:1008E000206A1F49012220F440700A6000220A6039
:1008F0002062C00711D0FFF7BFFE074641F28838DB
:1009000008E000BFFFF7B8FEC11B414502D9032034
:10091000BDE8F883206A8007F4D5206A696820F46E
:100920004070084320621EB1E06920F08050E06111
:100930002878800705D56068A96820F440400843FE
:1009400060602878C00605D56068696920F4800079
:10095000084360600020DBE70010024000700040A8
:10096000400442422DE9F0470F46050061D0434E56
:10097000306800F00700B84209D2306820F0070064
:1009800038433060306800F00700B84251D1286821
:100990003B4C810712D5400703D5606840F4E06006
:1009A00060602878000703D5606840F4605060609C
:1009B0006068A96820F0F000084360602878C007EC
:1009C00028D06868012810D02168022810D0890733
:1009D00000292EDA616821F0030101436160FFF70D
:1009E0004BFE804641F288390DE021688903EFE72C
:1009F0008901EDE7FFF740FEA0EB0801494502D968
:100A00000320BDE8F0876068696800F00C00B0EB77
:100A1000810FEFD1306800F00700B8420BD9306881
:100A200020F0070038433060306800F00700B8421B
:100A300001D00120E5E72878400705D56068E9681E
:100A400020F4E060084360602878000706D56068FD
:100A5000296920F4605040EAC100606000F038F875
:100A60006168084AC1F30311515CC8400649086037
:100A700006480068FFF720FE0020C2E70020024081
:100A800000100240603300083C00002034000020C9
:100A90000448054900684968044AC1F30221515CD1
:100AA000C84070473C00002000100240703300082E
:100AB0000448054900684968044AC1F3C221515CF1
:100AC000C84070473C00002000100240703300080E
:100AD0000E4A51680E4801F00C03042B11D0082B6C
:100AE0000FD10C48C1F38343C903C05C0AD55168D8
:100AF000084AC1F34041921E515C054A5043B0FB85
:100B0000F1F070470449484370470000001002406C
:100B100000127A003E33000800093D002DE9F84F2D
:100B2000040070D02078C04DC00749D06868C0F379
:100B30008100012807D06868C0F38100022809D12C
:100B40006868C00306D52868800339D56068002826
:100B5000E7D035E06068B0F5803F0BD010B1B0F55C
:100B6000A02F11D0286820F480302860286820F455
:100B7000802002E0286840F480302860606890B1EE
:100B8000FFF77AFD06460AE0286840F480202860D6
:100B9000F0E700BFFFF770FD801B642873D828685A
:100BA0008003F7D50CE0FFF767FD064605E000BFC0
:100BB000FFF762FD801B6428F0D828688003F7D413
:100BC00020789A4E80074FF001094FF0000839D580
:100BD000686810F00C0F07D06868C0F38100022825
:100BE00009D16868C00306D42868800714D5206935
:100BF000012808D110E02069B0B1C6F80090FFF7D5
:100C00003BFD074605E00AE1FFF736FDC01B022861
:100C1000C4D828688007F7D52868616920F0F800F3
:100C200040EAC10028600DE0C6F80080FFF724FD0F
:100C3000074604E0FFF720FDC01B022823D82868E0
:100C40008007F7D4207800072CD57948A169D9B15D
:100C5000C0F80090FFF710FD074604E0FFF70CFD19
:100C6000C01B02280FD8686A8007F7D571484FF477
:100C7000FA510068B0FBF1F0009000BF0098411EEF
:100C80000091FAD20EE080E0C0F80080FFF7F4FC9B
:100C9000074604E0FFF7F0FCC01B022875D8686A1D
:100CA0008007F7D42078400760D5E8690027C000A6
:100CB00008D4E86940F08050E861E869012700F055
:100CC000805000905C480168C90513D401688346D0
:100CD00041F480710160FFF7CFFC824606E000BF5F
:100CE000FFF7CAFCA0EB0A0064284ED8DBF800002E
:100CF000C005F5D5E06801280AD008B1052813D051
:100D0000286A20F001002862286A20F0040002E02E
:100D1000286A40F001002862E06841F2883B98B1FF
:100D2000FFF7AAFC82460BE0286A40F00400286224
:100D3000EEE700BFFFF7A0FCA0EB0A0159455AD827
:100D4000286A8007F6D50CE0FFF796FC824605E09E
:100D5000FFF792FCA0EB0A0159454CD8286A80079E
:100D6000F6D41FB1E86920F08050E861E06988B3EB
:100D70006968C1F38101022944D00228C6F8608065
:100D800004D0FFF779FC044638E034E0FFF774FC48
:100D9000074604E0FFF770FCC01B02282BD8286828
:100DA0008001F7D4206AB0F5803F05D16868A1685A
:100DB00020F4003008436860D4E9080108436968FA
:100DC00021F4741108436860C6F86090FFF754FC82
:100DD000044606E025E000BFFFF74EFC001B02289A
:100DE00009D828688001F7D51BE000BFFFF744FC55
:100DF000001B022802D90320BDE8F88F2868800173
:100E0000F4D40EE00128F7D06868226A00F480313B
:100E1000914204D1616A00F47010884201D001202F
:100E2000EAE70020E8E7000000100240000042422C
:100E3000800442423C000020007000407047704730
:100E400010B5044600680168C90717D04168C90792
:100E500014D040684007204607D5FFF7F0FF21680F
:100E60006FF004004860042002E0FFF7E7FF012074
:100E700060742068416821F00101416010BD80B1BB
:100E8000017C01290FD00121017402224274026801
:100E9000136843F001031360417400210174084694
:100EA00070470120704702207047704710B5044614
:100EB0000068016889070AD54068800707D5204681
:100EC000FFF7F3FF2068416821F002014160034908
:100ED0004FF4003008600120607410BD140401401C
:100EE00070B5040003D0607C002610B105E001203D
:100EF00070BD2674204600F03DF802206074204644
:100F000000F026F9042550BB204601F05AF830BB0A
:100F10002068416821F007014160A06820B11448B1
:100F2000016821F0010101601148001F0168A268F9
:100F300021F46071114301606068411C04D10120FB
:100F4000FFF73EFC58B1401E2268C0F30341916098
:100F5000216880B2C860204601F04EF808B165747F
:100F6000C5E7E67301206073A0736074002070BD54
:100F7000306C004008B500681549884226D1FFF75B
:100F800019FC1448C16941F00061C161C06912498E
:100F900000F000600090012008600022114603204C
:100FA000FFF7D6FB0320FFF7C5FB00220521292010
:100FB000FFF7CEFB2920FFF7BDFB0848FFF75FFFD7
:100FC000002803D0BDE80840FFF764B908BD000061
:100FD00000280040001002403C044242440000202F
:100FE0002DE9F0410D4604003BD0C5B3207C01281B
:100FF0003AD04FF0010884F8108002206074E8783D
:1010000072B300F0D5FFE073687800F0D1FF607331
:10101000A87800F0CDFFA073C2B2617BE07B01F045
:1010200024F820732870204601F00FF84FF4616116
:10103000B0FBF1F1002518292DD91822B1FBF2F1EE
:10104000A1EB011101EB4101C1EB011100EBC11654
:101050003146204601F048F80427C8B90BE000E00B
:1010600004E00120BDE8F0810220FBE7E07368782E
:101070006073A878CFE7204600F0E0FF411C0AD05B
:10108000B04208D206490144204601F019F810B1D7
:1010900067742574E5E784F8118025740020E1E782
:1010A000805101002DE9F0410D46040024D01DB30C
:1010B000207C012823D04FF0010884F81080022002
:1010C00060742878EAB100F073FF4FF4616100FBAF
:1010D00001F6687800F06CFFC0EB001006EB8006AC
:1010E000A87800F065FF35182946204600F0FCFF7F
:1010F0000026042710BB0FE00120BDE8F08102208C
:10110000FBE74FF4616148436978C1EB011100EBE3
:101110008100A9784518E7E72068416821F00501BA
:101120004160204600F08AFF411C0AD0A84208D244
:1011300006490144204600F0C3FF10B167742674CD
:10114000DAE784F8118026740020D6E78051010088
:1011500070B504000AD02068416821F008014160A0
:10116000FFF78AFA05464FF47A7608E0012070BD51
:10117000FFF782FA401BB04201D9032070BD2068FE
:1011800040680007F4D5002070BD10B5401EB0F1D6
:10119000807F01D3012010BD4FF0E02460610F215A
:1011A000601701F0B9FA0020A0610720206100203B
:1011B00010BD70477047000070B590F83C20012AC0
:1011C0002CD0012480F83C40022280F83D200368A6
:1011D0005A689D6822F070060A6832435A60104BC4
:1011E00002689A420ED00F4B9A420BD0B2F1804F58
:1011F00008D00D4B9A4205D00C4B9A4202D00C4BB2
:101200009A4204D1496825F080031943916080F81F
:101210003D40002180F83C10084670BD022070BDA2
:10122000002C014000340140000400400008004050
:10123000000C004010B5040003D094F83D0010B13C
:1012400007E0012010BD002084F83C00204600F09B
:101250001FF8022084F83D00211D206800F0A2FF45
:10126000012084F8460084F83E0084F83F0084F8AA
:10127000400084F8410084F8420084F8430084F878
:10128000440084F8450084F83D00002010BD0000B3
:1012900008B5174A01681748914207D1C16941F062
:1012A0000201C161C06900F0020009E0124A9142E6
:1012B00008D1C16941F00401C161C06900F00400B6
:1012C000009008BD0D4A9142FBD1C16941F0100167
:1012D000C161C069002200F0100000900421362096
:1012E000FFF736FABDE808403620FFF723BA0000C2
:1012F00000040040001002400008004000100040C0
:1013000090F83D10012901D001207047022180F89A
:101310003D100168CA6842F00102CA6000680E49C7
:1013200088420ED00D4988420BD0B0F1804F08D0D2
:101330000B49884205D00B49884202D00A498842AD
:1013400004D1816801F00701062903D0016841F04A
:101350000101016000207047002C01400034014071
:101360000004004000080040000C004070B5044636
:1013700090F83C000025012817D0012684F83C6035
:10138000022084F83D002068826822F0770222F46F
:101390007F4282600868502838D00DDC20284FD06A
:1013A00005DC90B3102811D14AE0022070BD30282E
:1013B00046D040280AD13BE060282FD070280DD0BD
:1013C000B0F5805F03D0B0F5005F12D0012584F83E
:1013D0003D60002084F83C00284670BDCB68D1E910
:1013E0000121206800F039FF2068816841F0770111
:1013F00009E0CB68D1E90121206800F02EFF2068C8
:10140000816841F480418160E1E719E0CA68496878
:10141000206800F0F7FF5021206806E0CA6849689C
:10142000206801F000F86021206800F020FFCEE77E
:10143000CA684968206800F0E5FF40212068F4E7A9
:10144000226801461046F0E770472DE9F041044656
:101450000068C66805694FF00007A90713D5B107F2
:1014600011D5F91E0161012020772068806980076D
:10147000204602D0FFF7E8FF04E000F0C5F8204660
:1014800000F057F92777680716D5700714D521683B
:101490006FF004000861022020772068806910F452
:1014A000407F204602D0FFF7CFFF04E000F0ACF809
:1014B000204600F03EF92777280715D5300713D5C9
:1014C00021686FF008000861042020772068C06957
:1014D0008007204602D0FFF7B7FF04E000F094F841
:1014E000204600F026F92777E80616D5F00614D531
:1014F00021686FF010000861082020772068C0691B
:1015000010F4407F204602D0FFF79EFF04E000F079
:101510007BF8204600F00DF92777E80708D0F007A0
:1015200006D021686FF001000861204600F05CF9E8
:10153000280608D5300606D521686FF080000861BE
:101540002046FFF736FE680608D5700606D52168E6
:101550006FF040000861204600F074F9A8060AD533
:10156000B00608D521686FF0200008612046BDE86C
:10157000F041FFF71FBEBDE8F081000010B586B056
:10158000002100910191029103911A4C03681A49BC
:1015900002221A48A34219D18B6943F008038B61D8
:1015A0008969039201F0080104912021CDE900121C
:1015B0006946FEF757FF1248416821F4406141F047
:1015C000E06141F40061416006B010BD0D4CA342E2
:1015D000FAD18B6943F008038B618969039201F0AA
:1015E000080104918021CDE900126946FEF73AFF17
:1015F000EAE700000004004000100240000C014037
:101600000000014000080040704770B5044690F8A3
:101610003C0000260D4601280FD0012084F83C0034
:101620006AB1042A1DD0082A2FD00C2A3FD00126E7
:10163000002084F83C00304670BD022070BD206858
:1016400000F01EFE2068816941F008018161206878
:10165000816921F004018161206881692A6911434F
:1016600011E0206800F03CFE2068816941F40061CF
:1016700081612068816921F48061816120688169CC
:101680002A6941EA02218161D2E7206800F05EFE0A
:101690002068C16941F00801C1612068C16921F079
:1016A0000401C1612068C1692A69114311E0206801
:1016B00000F080FE2068C16941F40061C1612068CA
:1016C000C16921F48061C1612068C1692A6941EA68
:1016D0000221C161ACE710B5040003D094F83D00CD
:1016E00010B107E0012010BD002084F83C00204626
:1016F00000F01EF8022084F83D00211D206800F053
:1017000051FD012084F8460084F83E0084F83F0033
:1017100084F8400084F8410084F8420084F84300D3
:1017200084F8440084F8450084F83D00002010BD92
:101730007047704710B50446022249B104290ED003
:10174000082913D094F84100012816D0012010BDBB
:1017500094F83E000128F9D184F83E200FE094F877
:101760003F000128F2D184F83F2008E094F84000BF
:101770000128EBD184F8402001E084F841200122C7
:10178000206800F05DFD13492068134A884201D0AB
:10179000904203D1436C43F4004343642068884281
:1017A0000DD090420BD0B0F1804F08D00B49884249
:1017B00005D00B49884202D00A49884204D1816889
:1017C00001F00701062903D0016841F00101016021
:1017D000002010BD002C01400034014000040040F6
:1017E00000080040000C0040134A10B542F210718E
:1017F000904220D111480023114C4268012A0BD19C
:10180000026802F5847202608A4201DA114601E040
:10181000C0E9001322689163416800290BD1016877
:10182000A1F584710160002902DC0121C0E90031C9
:1018300021680068886310BDE800002004000020D3
:10184000580000207047704770470000F8B50168E5
:1018500004460868CA684B6910F00F0F4FF0000586
:1018600059D003F0010602F49077374365D0C107E1
:1018700005D0D10503D5616C41F0010161644107D8
:1018800005D5D90703D0616C41F00201616481077D
:1018900005D5D90703D0616C41F0040161640107EB
:1018A00007D502F02001314303D0616C41F00801FB
:1018B0006164616C00293AD0800604D5900602D597
:1018C000204600F0F1FD20684069616CC0F3801093
:1018D000090700D460B3204600F0BFFD20684069CE
:1018E000400621D52068143050E8001F21F0400147
:1018F00040E80012002AF5D1E06BA8B16D494163C0
:10190000E06BFEF7EDFC002811D0E06B416B01B0FD
:10191000BDE8F040084783060FD593060DD5204655
:10192000BDE8F84000F0C0BD2046FFF78DFFF8BDD0
:101930002046FFF789FF6564F8BD266B2023012E42
:101940007CD1C6067AD5D60678D508684868009056
:1019500048694FF00206400640D5E16B08684068D0
:101960000004000CE8D0A28D8242E5D9E0858869A8
:1019700020282DD020680C3050E8001F21F4807101
:1019800040E80012002AF5D12068143050E8001F0A
:1019900021F0010140E80012002AF5D1206814303E
:1019A00050E8001F21F0400140E80012002AF5D164
:1019B00084F84230256320680C3050E8001F21F085
:1019C000100140E80012002AF5D1E06BFEF764FC3C
:1019D0006663A08DE18D401A81B22AE0A08DE18D71
:1019E000401A81B2E08D0028A6D00029A4D0226838
:1019F0000C3252E8000F20F4907042E80007002FEC
:101A0000F5D12068143050E8002F22F0010240E8A0
:101A10000027002FF5D184F84230256320680C3070
:101A200050E8002F22F0100240E80023002BF5D1EF
:101A300066632046FFF707FFF8BDFFE705062BD5D5
:101A4000150629D594F841002128F5D1A068B0F5F4
:101A5000805F01D12069B0B1206A411C21622168F8
:101A600000784860E08C401E0004000CE084E3D164
:101A70002068C16821F08001C1602068C16841F020
:101A80004001C160D8E7206A0088C0F308004860C0
:101A9000206A801C2062E5E74006CDD55006CBD5F4
:101AA000CA68204622F04002CA6084F8413000F043
:101AB000EFF8C1E74B24000870B5040004D094F897
:101AC0004100002510B106E0012070BD84F84050AF
:101AD000204600F023F8242084F841002068C168E3
:101AE00021F40051C160204600F040FD20680169EA
:101AF00021F4904101612068416921F02A0141618E
:101B00002068C16841F40051C1606564202084F8F8
:101B1000410084F842006563002070BD30B585B097
:101B200000240094019402940394006818498842A8
:101B30002CD11848816941F480418161816901F4A7
:101B400080410491816941F0040181618069124DF5
:101B500000F0040004904FF4007000900220019007
:101B60000320039069462846FEF77CFC2815CDE942
:101B70000004694628460294FEF774FC0022032103
:101B80002520FEF7E5FD2520FEF7D4FD05B030BD8C
:101B900000380140001002400008014090F8423037
:101BA000202B01D00220704721B11AB1002303631A
:101BB00000F038BD01207047094988420ED109481C
:101BC000094A017809484388D1544188491CC9B25F
:101BD0004180012203490248FFF7E0BF704700003F
:101BE0003001002028000020780100202A00002079
:101BF0002DE9F843044690F84100984616460D46F4
:101C0000202802D00220BDE8F88385B17EB10020F3
:101C10006064212084F84100FEF72EFDA6848146F1
:101C2000E684A0682027B0F5805F02D003E00120A1
:101C3000E9E7206910B12E4600250EE000260CE0F1
:101C40008021204600F009FDA8B9C6B116F8010BA5
:101C500021684860E08C401EE084E08C4B464FF0E9
:101C60000002CDF800800028EAD14FF04001204664
:101C700000F0F3FC40B184F841700320C3E735F86D
:101C8000020BC0F30800E3E784F841700020BAE7D4
:101C90007047FEE7F0B585B0002430480094019409
:101CA00002940394816941F040018161816901F0EE
:101CB00040010491816941F010018161816901F065
:101CC00010010491816941F004018161816901F091
:101CD00004010491816941F0080181618069204F0C
:101CE00000F008000490002220213846FEF7BEFCD8
:101CF000182000901B480125CDE9010569463846AA
:101D0000FEF7B0FB20200226CDE90005CDE9024612
:101D100069463846FEF7A6FB2F0200970396CDE9E9
:101D20000154114C69462046FEF79CFB00223946BF
:101D30002046FEF79BFC002208210920FEF708FD43
:101D40000920FEF7F7FC002208210A20FEF700FD1B
:101D50000A20FEF7EFFC05B0F0BD000000100240C5
:101D60000018014000002110000C01401CB50024A7
:101D70001A480194184900940160611E41604FF4B3
:101D800080718160FFF7ACF808B1FEF783FA0B2091
:101D90008DF804008DF805408DF80640002201A959
:101DA0000E48FFF77FF908B1FEF774FA01208DF8AD
:101DB000000003208DF8010017208DF802001A2082
:101DC0008DF80300002269460448FFF709F900284E
:101DD00001D0FEF75FFA1CBD00280040440000203F
:101DE00010B58EB000240794089409940A940B94BB
:101DF0001C2168460C94FEF7D0F920481E4901606A
:101E00008F21C0E9011442F20F71C0E9031480214F
:101E10008161FFF70FFA08B1FEF73CFA4FF48050EA
:101E2000079007A91548FFF7A1FA08B1FEF732FAA3
:101E30001248FFF750FC08B1FEF72CFA0B940BA9DF
:101E40000E480C94FFF7B8F908B1FEF723FA6020AA
:101E5000009041F2883001900220029004226946ED
:101E600004940648FFF7D1FB08B1FEF713FA0348C4
:101E7000FFF784FB0EB010BD0004004058000020A6
:101E800010B58EB000240794089409940A940B941A
:101E90001C2168460C94FEF780F91F481D4901601B
:101EA00040F60F61C0E9011444F61F61C0E9031454
:101EB00080218161FFF7BEF908B1FEF7EBF94FF41D
:101EC0008050079007A91448FFF750FA08B1FEF7B1
:101ED000E1F91148FFF7FFFB08B1FEF7DBF90B94BE
:101EE0000BA90D480C94FFF767F908B1FEF7D2F97A
:101EF0006020CDE900040294042269460648049457
:101F0000FFF783FB08B1FEF7C5F90348FFF736FB7F
:101F10000EB010BD00080040A00000201CB5002439
:101F20000F4800940D490194016040F60F61C0E92B
:101F3000011442F20F71C16080218161FFF77AF9CB
:101F400008B1FEF7A7F90094694605480194FFF728
:101F500033F9002801D0FEF79DF91CBD00100040A8
:101F6000E80000200C4810B50A4901604FF4E13147
:101F70004160002181600C22C160C0E904128161CE
:101F8000C161FFF799FD002803D0BDE81040FEF7BE
:101F900081B910BD0038014030010020FEE7FEE7A6
:101FA000704700000148FEF781BF00004400002098
:101FB000010901EB810100F00F0000EB4100C0B20C
:101FC000704770B50446FEF757FB05464FF47A7626
:101FD00006E0FEF751FB401BB04201D9032070BD63
:101FE000206840688006F4D52068416841F01001FF
:101FF0004160002070BD000070B504460068416873
:1020000021F010014160FEF737FB05464FF47A7668
:1020100007E000BFFEF730FB401BB04201D90320B0
:1020200070BD206840688006F4D5002070BD0000B7
:102030000148FEF705BF0000440000200168086A5F
:10204000496A89B241EA00407047006881698AB2F2
:10205000C1698BB2816989B28A4203D0C06961F3D8
:102060001F40704743EA02407047F0B56424C1EB5B
:10207000C1030927A500072603EB01130329B3FBBE
:10208000F7F100F5FA60114401440AD2401EB0FB9A
:10209000F4F201EB9001B0FBF5F0891A0844001D41
:1020A00008E0B0FBF4F201EB9001B0FBF5F0891A07
:1020B0000844801CB0FBF6F106FB1100C0B2F0BD75
:1020C00070B50D4606460024FFF77BFF48B931681E
:1020D000280C08623168A8B248623046FFF78CFFCE
:1020E00000B10124204670BD70B50D46064600249F
:1020F000FFF767FF48B93168280C88613168A8B2DA
:10210000C8613046FFF778FF00B10124204670BD5A
:102110007047FEF7B7BA70B596B028216846FEF74B
:102120003CF814210AA8FEF738F818210FA8FEF78A
:1021300034F80920012400904FF4803000250494E5
:102140000694CDE901050226CDE907604FF4E010C1
:1021500009906846FEF7E2FC08B172B6FEE70F2070
:10216000CDE90A064FF48060CDE90C5002210AA89F
:102170000E95FEF7F7FB08B172B6FEE74FF400705C
:10218000CDE90F400FA8FEF777FB002801D072B60B
:10219000FEE716B070BD70470148FFF756B9000062
:1021A000E8000020F0B50268204C214D214E224F5E
:1021B000224B4FF0804CA04209D0984207D0604596
:1021C00005D0A84203D0B04201D0B84204D122F0D9
:1021D000700E4A6842EA0E02A04209D0984207D027
:1021E000604505D0A84203D0B04201D0B84203D127
:1021F00022F44075CA682A434D6922F080022A43BE
:1022000002608A68C2620A688262A04201D0984273
:1022100001D109690163012141610169C90703D045
:10222000016921F001010161F0BD0000002C0140B5
:102230000004004000080040000C00400034014051
:1022400010B501F01F030121046A99408C43046218
:10225000016A9A401143016210BD10B5846842EAD8
:10226000032224F47F440A432243826010BD826823
:1022700022F070020A4342F00701816070470000BB
:10228000F0B5036A026A22F00102026242688469C0
:10229000124E24F073050C682C4323F002058B6862
:1022A0002B430D4DA84201D0B04205D123F00807C1
:1022B000CB683B4323F00403A84201D0B04205D1D0
:1022C0004D6922F4407215438A692A434260846151
:1022D000496841630362F0BD002C014000340140B5
:1022E000F0B5026A036A23F010030362436884694D
:1022F0000D6824F4E64444EA05248D6822F02002A7
:1023000042EA05120F4D104EA84201D0B04206D14C
:10231000CF6822F0800242EA071222F04002A8426F
:1023200001D0B04207D14D6923F4406343EA8503ED
:102330008D6943EA85034360846149688163026271
:10234000F0BD0000002C014000340140F0B5026AED
:10235000036A23F4807303624368C46922F4007241
:1023600024F073050C68124E2C438D6842EA052256
:102370000E4DA84201D0B04206D1CF6822F40062CF
:1023800042EA072222F48062A84201D0B04207D17B
:102390004D6923F4405343EA05138D6943EA05135D
:1023A0004360C4614968C1630262F0BD002C014012
:1023B0000034014030B5046A026A22F4805202629D
:1023C0004268C3690D6823F4E64343EA05238D6838
:1023D00024F4005444EA0534084DA84202D0084DC4
:1023E000A84204D14D6922F4804242EA851242603B
:1023F000C36149680164046230BD0000002C0140E3
:102400000034014010B5036A046A24F00104046238
:10241000846924F0F00444EA021423F00A020A4317
:102420008461026210BD10B5036A046A24F01004CE
:102430000462846923F0A00324F4704444EA023265
:1024400043EA01118261016210BD10B5406A0021AA
:10245000C185C184FFF7F8F910BD01680C3151E85E
:10246000002F22F4907241E80023002BF5D101687F
:10247000143151E8002F22F0010241E80023002B23
:10248000F5D1016B012909D101680C3151E8002F08
:1024900022F0100241E80023002BF5D1202180F822
:1024A000421000210163704708B590F842102229BC
:1024B00001D0022008BD82684FF480539A4201D1B6
:1024C000016921B1816A9A421BD04AB10AE00268CF
:1024D000816A5268C2F308020A80816A891C08E096
:1024E000026972B10268526802F07F020A70816A62
:1024F000491C8162C18D491E0904090CC18503D0A4
:102500001BE002685268F1E70168CA6822F0200205
:10251000CA600168CA6822F48072CA6001684A69A8
:1025200022F001024A61202180F84210002141631B
:10253000026B012A03D0FFF73FFB002008BD0163B7
:1025400001680C3151E8002F22F0100241E800230D
:10255000002BF5D101680A68D20602D50A684968DD
:102560000091818DFFF76FF9E7E7000070B5044631
:1025700000680169E26821F4405111430161216959
:10258000A0680843616908432168CA6841F20C6386
:102590009A430243CA6020684169A26921F44071EC
:1025A000114341611E492068884202D1FEF780FA3A
:1025B00001E0FEF76DFA00EBC00101EB001260686C
:1025C00064218000B2FBF0F3B3FBF1F36FF0180667
:1025D0007343B2FBF0F5B2FBF0F605EB8305322353
:1025E00003EB0515B5FBF1F5B6FBF1F605F0F005CB
:1025F00005EB0615B2FBF0F6B2FBF0F0B0FBF1F024
:102600006FF01802504306EB800003EB0010B0FBA4
:10261000F1F0216800F00F002844886070BD0000D0
:102620000038014081628285C285002141642221F7
:1026300080F84210016921B10168CA6842F48072D1
:10264000CA6001684A6942F001024A610068C168D3
:1026500041F02001C160002070472DE9F843984601
:1026600017460D460446089E24E0701C22D0FEF753
:1026700003F8A0EB0800B0421AD8CEB12068C168B8
:10268000490717D5802D15D0402D13D00168C943B7
:1026900009070FD401680025406800902046FFF725
:1026A000DCFE0820606484F840500120BDE8F88317
:1026B0000320FBE72068006835EA000004D0002012
:1026C000B842D2D00020F1E70120F9E708B5074869
:1026D000FFF7BCF8054800680168C90605D5016820
:1026E0004068034900900120087008BD30010020B7
:1026F00000000020FEE700000FB4054B10B503A951
:10270000044A029800F028F810BC5DF814FB0000A1
:10271000B12B0008400000200907090E002804DB47
:1027200000F1E02080F80014704700F00F0000F185
:10273000E02080F8141D704702E008C8121F08C18D
:10274000002AFAD170477047002001E001C1121F32
:10275000002AFBD1704700002DE9FF4F8DB00F46D6
:102760000546002606E025280BD0DDE90F1290472C
:102770006D1C761C28780028F5D111B03046BDE8D4
:10278000F08F0024A246A1460122E94900E004435B
:1027900015F8013F203B02FA03F00842F7D12878F0
:1027A0002A2810D06FF02F022878A0F130010929D3
:1027B00014D80AEB8A0102EB410144F0020400EB59
:1027C000010A6D1CF0E701CF5FEA000A03D544F46B
:1027D0000054CAF1000A44F002046D1C28782E2827
:1027E00017D115F8010F44F004042A280ED06FF019
:1027F0002F022878A0F1300109290AD809EB8901B4
:1028000002EB410100EB01096D1CF2E757F8049B54
:102810006D1C28786C280FD006DC4C2817D068284F
:102820000DD06A2814D104E0742810D07A280FD172
:102830000DE044F400140AE044F4801401E044F490
:1028400040146978814202D104F580146D1C6D1C1E
:1028500028786E281ED00CDC632830D004DC0028D9
:102860008BD0582811D19FE0642867D069280CD1FB
:1028700064E073282DD004DC6F2872D0702804D156
:1028800094E075286ED078286DD0DDE90F1290475E
:10289000761C4BE1C4F30250022806D0032809D06D
:1028A000042801CF09D0066040E101CFF117C0E94B
:1028B00000613BE101CF068038E1067036E117F890
:1028C000040B8DF8000000208DF80100EB4601207C
:1028D00003E057F804BB4FF0FF3061074FF00001F1
:1028E00002D40DE008F10101884649450FDA804520
:1028F000F8DB1BF808100029F4D108E008F1010109
:1029000088468142FADB1BF808100029F6D1DDE980
:102910000F23AAEB08008146214600F031F930442C
:1029200000EB080604E0DDE90F121BF8010B9047ED
:10293000B8F10108F7D221464846F2E00A21C4F373
:1029400002524FF0000B0891022A04D001CFC117A8
:10295000032A09D00AE0FF1D27F00707F7E8020164
:1029600008E02CE01EE01FE000B2C117042A01D1EC
:1029700040B2C117021E71F1000206DA0023D0EB4B
:10298000030063EB01012D2202E0220504D52B2276
:102990008DF82420012203E0E20701D02022F7E78E
:1029A000904653E00A210BE0102109E010214FF07E
:1029B000000B44F004044FF00809089103E00821DB
:1029C0004FF0000B0891C4F30252022A04D001CF49
:1029D0000021032A06D006E0FF1D27F00707F7E8CD
:1029E000020103E080B2042A00D1C0B24FF0000817
:1029F00022072BD52A78702A07D0DDF820C08CF06A
:102A0000100C5CEA0B0C05D00EE040228DF824205F
:102A1000012208E050EA010306D030238DF824306B
:102A20008DF8252002229046089B83F0080353EA84
:102A30000B030BD150EA010201D1620706D5302207
:102A40008DF824204FF00108A9F101092A78582AAD
:102A500004D038A20B9208AA0A920BE03AA2F9E736
:102A60005B46089AFDF7A4FB0B9B9B5C0A9A521EDF
:102A70000A92137050EA0102F2D10A98ADEB0000FD
:102A800000F1200B600702D524F4803401E04FF000
:102A90000109D94502DDA9EB0B0000E0002000EBA5
:102AA0000B0141440890AAEB010AE00306D4DDE9DA
:102AB0000F232146504600F063F806444FF000090A
:102AC00008E009A911F80900DDE90F12904709F1A2
:102AD0000109761CC145F4DBE0030CD5DDE90F23C9
:102AE0002146504600F04CF8064404E0DDE90F12A0
:102AF00030209047761C0899481E08900029F5DC84
:102B000008E00A980A990078491C0A91DDE90F1239
:102B10009047761CBBF10001ABF1010BF1DC2146C3
:102B20005046DDE90F2300F019F806446D1C21E63C
:102B30000928010030313233343536373839616293
:102B40006364656600000000303132333435363757
:102B50003839414243444546000000002DE9F04128
:102B6000044600251E461746880404D405E039466D
:102B70002020B0476D1C641EF9D52846BDE8F081C1
:102B80002DE9F041044600251E469046C80301D5B4
:102B9000302700E02027880404D505E04146384668
:102BA000B0476D1C641EF9D52846BDE8F0810000D1
:102BB00013B54FF6FF73012269460248FFF718F874
:102BC00000981CBD30010020C0B0FDF763FDFFF789
:102BD000A2FAFFF75FF8FFF7C9F8FFF79FF9FFF7D1
:102BE000FFF8FFF74DF9FFF7BDF929480068C16804
:102BF00041F01001C160012226492548FEF7CEFFB1
:102C0000012220212448FDF731FD244C01222021FE
:102C10002046FDF72BFD2248FEF772FB04212148D8
:102C2000FEF788FD04212048FEF784FD06210020E0
:102C3000FDF712FB002600F049F8A046202140468F
:102C4000761CFDF70BFD314618A0FFF755FD00F08F
:102C50002BFB002817DD4FF48071684600F036FB2F
:102C6000051E10DD014613A0FFF746FD00246F4648
:102C700004E0395D13A0FFF73FFD641CAC42F8DBB4
:102C80000BA0FFF739FD4FF47A70FDF7C1FBD5E7D4
:102C90003001002028000020000C014000180140F5
:102CA000E800002058000020A0000020693D2564B5
:102CB0000A0D000072656376206C656E3D25643AEE
:102CC00020000000253032582000000010B518A068
:102CD000FFF712FD22A0FFF70FFD2BA0FFF70CFD61
:102CE00000F080F84FF47A742046FDF791FB00F075
:102CF00083FA2046FDF78CFB00F02AFA2046FDF708
:102D000087FB00F0EDF80321012000F0B3F9032167
:102D1000042000F0AFF900F06BF906A0FFF7ECFC1F
:102D200025A0FFF7E9FCBDE8104017A0FFF7E4BCC1
:102D30000D0A0D0A232323232323232323232323C1
:102D40002323232323232323232323232323232353
:102D50002323232323232323232323230D0A0000B8
:102D60002323232323232323204861726477617262
:102D70006520546573742053746172742023232377
:102D800023232323230D0A00232323232323232365
:102D90002323232323232323232323232323232303
:102DA00023232323232323232323232323232323F3
:102DB0000D0A0D0A000000002323232323232323CD
:102DC0002048617264776172652054657374204392
:102DD0006F6D706C657465202323232323232323C5
:102DE0000D0A00002DE9F04129A0FFF785FC30A075
:102DF000FFF782FC374D00264FF4807401222146F4
:102E00002846FDF733FCC820FDF702FB00222146CF
:102E10002846FDF72BFCC820FDF7FAFA761C032E96
:102E2000ECDB4FF496784046FDF7F2FA00264FF4BB
:102E30001677012221462846FDF718FC3846FDF793
:102E4000E7FA002221462846FDF710FCC820FDF7CE
:102E5000DFFA761C032EECDB4046FDF7D9FA00269C
:102E6000012221462846FDF701FCC820FDF7D0FAD3
:102E7000002221462846FDF7F9FBC820FDF7C8FAD5
:102E8000761C032EECDBBDE8F04113A0FFF734BC49
:102E90000D0A3D3D3D204163746976652042757A97
:102EA0007A65722054657374203D3D3D0D0A000023
:102EB000506C6179696E67204D6F7273653A20536B
:102EC0004F5320282E2E2E2D2D2D2E2E2E290D0A3D
:102ED00000000000000C0140446F6E650D0A000008
:102EE0002DE9F04115A0FFF707FC1FA0FFF704FC38
:102EF00024A0FFF701FC2B4C002525706570FDF721
:102F0000BBFB064641F288370EE0207818B126A0B8
:102F1000FFF7F2FB2570607818B12AA0FFF7ECFBF1
:102F200065706420FDF774FAFDF7A6FB801BB842BC
:102F3000EBD3BDE8F0412AA0FFF7DEBB0D0A3D3D13
:102F40003D204B657920546573742028496E746563
:102F50007272757074202035207365636F6E6473B0
:102F600029203D3D3D0D0A005072657373206B654D
:102F7000797320746F20736565206F757470757434
:102F80000D0A00004B6579313D53746172742F5204
:102F900065706C61792C204B6579323D52657365A3
:102FA000740D0A002A0000203E3E3E204B65793118
:102FB00028504534292050726573736564210D0AC9
:102FC000000000003E3E3E204B65793228504533DC
:102FD000292050726573736564210D0A000000009A
:102FE0004B6579205465737420446F6E650D0A003B
:102FF0002DE9F0410FA0FFF77FFB14A0FFF77CFB4A
:10300000FDF73AFB0446174E4FF4FA7740F6B83511
:1030100006E020213046FDF721FB3846FDF7F8F9A0
:10302000FDF72AFB001BA842F3D3BDE8F0410EA038
:10303000FFF762BB0D0A3D3D3D204C454432205414
:10304000657374203D3D3D0D0A0000004C4544323F
:10305000285045352920426C696E6B2033207365FA
:10306000630D0A00001801404C45443220446F6E45
:10307000650D0A002DE9F05F0546884620A0FFF7A0
:103080003BFB4246294625A0FFF736FB68004FF47C
:103090007A71B1FBF0F742F21074FDF7EDFA0025FA
:1030A00008EB48010646AA46DFF890904FEA540B19
:1030B000C1EBC8180FE0EDB1D9F80010C1F838B075
:1030C0005FF00005FDF7D8FA4FEA0004FDF7D4FAE7
:1030D000001BB842FAD3FDF7CFFA811BB1EBC80F42
:1030E000E9D3D9F80010C1F838A0BDE8F05F14A00A
:1030F000FFF702BBD9F80010C1F838A00125E1E7BD
:103100000D0A3D3D3D204C45442050574D2054650F
:103110007374203D3D3D0D0A00000000467265714C
:103120003A20256420487A2C204475726174696FB6
:103130006E3A202564207365630D0A005800002054
:103140004C45442050574D20446F6E650D0A0000D9
:1031500070B586B013A0FFF7CFFA1BA0FFF7CCFA2B
:10316000224803AE00240EC88DE80E0007C886E88A
:1031700007006D46022155F82400FDF76DF856F85A
:103180002400FDF745F902210020FDF765F8322003
:10319000FDF73EF9641C032CECDB15A0FFF7ACFA3D
:1031A00006B070BD0D0A3D3D3D20506173736976D8
:1031B000652042757A7A6572202D204572726F7291
:1031C000203D3D3D0D0A0000506C6179696E673A03
:1031D000204572726F7220283337302B3334392BED
:1031E000313936487A290D0A0000000024330008DE
:1031F000446F6E650D0A000070B588B013A0FFF72C
:103200007BFA1CA0FFF778FA244804AE6D461EC86E
:103210008DE81E000FC886E80F000024022155F833
:103220002400FDF719F856F82400FDF7F1F8022103
:103230000020FDF711F83220FDF7EAF8641C042C99
:10324000ECDB17A0FFF758FA08B070BD0D0A3D3D42
:103250003D20506173736976652042757A7A657294
:10326000202D2053756363657373203D3D3D0D0A2A
:1032700000000000506C6179696E673A20537563F5
:103280006365737320283532332B3635392B373845
:10329000342B31303436487A290D0A0004330008C3
:1032A000446F6E650D0A000007484188828891428C
:1032B00003D341888088081A04E081884088C1F5DA
:1032C0008071084480B270472A00002070B5034620
:1032D00000200A4A0A4C491E07E09588655D1D5486
:1032E00095886D1CEDB29580401C95885688B54236
:1032F00001D08842F1DB0021195470BD2A00002062
:10330000780100200B02000093020000100300006F
:1033100016040000500000005000000050000000A3
:1033200096000000720100005D010000C400000072
:10333000960000002C010000900100000102020331
:103340000405060708090A0B0C0D0E0F10100102E8
:1033500002030405060708090A0B0C0D0E0F1010D6
:103360000000000000000000010203040607080935
:103370000000000001020304983300080000002050
:103380004400000038270008DC3300084400002017
:10339000340600004827000800000000000000007C
:1033A000010000000B0200004B020000930200002D
:1033B000BA0200001003000070030000DC030000EC
:1033C00000000000000000000100000010000000EC
:0C33D0000000000000127A000000000065
:0400000508000131BD
:00000001FF
